{
  "_format": "hh-sol-artifact-1",
  "contractName": "Auctions",
  "sourceName": "contracts/Auctions.sol",
  "abi": [
    {
      "inputs": [],
      "name": "AuctionAlreadySettled",
      "type": "error"
    },
    {
      "inputs": [],
      "name": "AuctionDoesNotExist",
      "type": "error"
    },
    {
      "inputs": [],
      "name": "AuctionNotActive",
      "type": "error"
    },
    {
      "inputs": [],
      "name": "AuctionNotComplete",
      "type": "error"
    },
    {
      "inputs": [],
      "name": "FailedWithdrawal",
      "type": "error"
    },
    {
      "inputs": [],
      "name": "MinimumBidNotMet",
      "type": "error"
    },
    {
      "inputs": [],
      "name": "NoBalanceToWithdraw",
      "type": "error"
    },
    {
      "inputs": [],
      "name": "TooManyTokens",
      "type": "error"
    },
    {
      "anonymous": false,
      "inputs": [
        {
          "indexed": true,
          "internalType": "uint256",
          "name": "auctionId",
          "type": "uint256"
        },
        {
          "indexed": true,
          "internalType": "uint256",
          "name": "endTimestamp",
          "type": "uint256"
        }
      ],
      "name": "AuctionExtended",
      "type": "event"
    },
    {
      "anonymous": false,
      "inputs": [
        {
          "indexed": true,
          "internalType": "uint256",
          "name": "auctionId",
          "type": "uint256"
        },
        {
          "indexed": true,
          "internalType": "address",
          "name": "tokenContract",
          "type": "address"
        },
        {
          "indexed": true,
          "internalType": "uint256",
          "name": "tokenId",
          "type": "uint256"
        },
        {
          "indexed": false,
          "internalType": "uint16",
          "name": "tokenERCStandard",
          "type": "uint16"
        },
        {
          "indexed": false,
          "internalType": "uint40",
          "name": "endTimestamp",
          "type": "uint40"
        },
        {
          "indexed": false,
          "internalType": "address",
          "name": "beneficiary",
          "type": "address"
        }
      ],
      "name": "AuctionInitialised",
      "type": "event"
    },
    {
      "anonymous": false,
      "inputs": [
        {
          "indexed": true,
          "internalType": "uint256",
          "name": "auctionId",
          "type": "uint256"
        },
        {
          "indexed": true,
          "internalType": "address",
          "name": "winner",
          "type": "address"
        },
        {
          "indexed": true,
          "internalType": "address",
          "name": "beneficiary",
          "type": "address"
        },
        {
          "indexed": false,
          "internalType": "uint256",
          "name": "amount",
          "type": "uint256"
        }
      ],
      "name": "AuctionSettled",
      "type": "event"
    },
    {
      "anonymous": false,
      "inputs": [
        {
          "indexed": true,
          "internalType": "uint256",
          "name": "auctionId",
          "type": "uint256"
        },
        {
          "indexed": true,
          "internalType": "uint256",
          "name": "bid",
          "type": "uint256"
        },
        {
          "indexed": true,
          "internalType": "address",
          "name": "from",
          "type": "address"
        }
      ],
      "name": "Bid",
      "type": "event"
    },
    {
      "inputs": [],
      "name": "AUCTION_DURATION",
      "outputs": [
        {
          "internalType": "uint40",
          "name": "",
          "type": "uint40"
        }
      ],
      "stateMutability": "view",
      "type": "function"
    },
    {
      "inputs": [],
      "name": "BIDDING_GRACE_PERIOD",
      "outputs": [
        {
          "internalType": "uint40",
          "name": "",
          "type": "uint40"
        }
      ],
      "stateMutability": "view",
      "type": "function"
    },
    {
      "inputs": [],
      "name": "BID_PERCENTAGE_INCREASE",
      "outputs": [
        {
          "internalType": "uint256",
          "name": "",
          "type": "uint256"
        }
      ],
      "stateMutability": "view",
      "type": "function"
    },
    {
      "inputs": [],
      "name": "MAX_BID_INCREASE",
      "outputs": [
        {
          "internalType": "uint256",
          "name": "",
          "type": "uint256"
        }
      ],
      "stateMutability": "view",
      "type": "function"
    },
    {
      "inputs": [],
      "name": "auctionId",
      "outputs": [
        {
          "internalType": "uint256",
          "name": "",
          "type": "uint256"
        }
      ],
      "stateMutability": "view",
      "type": "function"
    },
    {
      "inputs": [
        {
          "internalType": "uint256",
          "name": "",
          "type": "uint256"
        }
      ],
      "name": "auctions",
      "outputs": [
        {
          "internalType": "address",
          "name": "tokenContract",
          "type": "address"
        },
        {
          "internalType": "uint256",
          "name": "tokenId",
          "type": "uint256"
        },
        {
          "internalType": "uint80",
          "name": "tokenAmount",
          "type": "uint80"
        },
        {
          "internalType": "uint16",
          "name": "tokenStandard",
          "type": "uint16"
        },
        {
          "internalType": "uint40",
          "name": "endTimestamp",
          "type": "uint40"
        },
        {
          "internalType": "bool",
          "name": "settled",
          "type": "bool"
        },
        {
          "internalType": "uint112",
          "name": "latestBid",
          "type": "uint112"
        },
        {
          "internalType": "address",
          "name": "latestBidder",
          "type": "address"
        },
        {
          "internalType": "address payable",
          "name": "beneficiary",
          "type": "address"
        }
      ],
      "stateMutability": "view",
      "type": "function"
    },
    {
      "inputs": [
        {
          "internalType": "address",
          "name": "",
          "type": "address"
        }
      ],
      "name": "balances",
      "outputs": [
        {
          "internalType": "uint256",
          "name": "",
          "type": "uint256"
        }
      ],
      "stateMutability": "view",
      "type": "function"
    },
    {
      "inputs": [
        {
          "internalType": "uint256",
          "name": "id",
          "type": "uint256"
        }
      ],
      "name": "bid",
      "outputs": [],
      "stateMutability": "payable",
      "type": "function"
    },
    {
      "inputs": [
        {
          "internalType": "uint256",
          "name": "id",
          "type": "uint256"
        }
      ],
      "name": "currentBidPrice",
      "outputs": [
        {
          "internalType": "uint256",
          "name": "",
          "type": "uint256"
        }
      ],
      "stateMutability": "view",
      "type": "function"
    },
    {
      "inputs": [
        {
          "internalType": "address",
          "name": "",
          "type": "address"
        },
        {
          "internalType": "address",
          "name": "",
          "type": "address"
        },
        {
          "internalType": "uint256[]",
          "name": "",
          "type": "uint256[]"
        },
        {
          "internalType": "uint256[]",
          "name": "",
          "type": "uint256[]"
        },
        {
          "internalType": "bytes",
          "name": "",
          "type": "bytes"
        }
      ],
      "name": "onERC1155BatchReceived",
      "outputs": [
        {
          "internalType": "bytes4",
          "name": "",
          "type": "bytes4"
        }
      ],
      "stateMutability": "nonpayable",
      "type": "function"
    },
    {
      "inputs": [
        {
          "internalType": "address",
          "name": "",
          "type": "address"
        },
        {
          "internalType": "address",
          "name": "from",
          "type": "address"
        },
        {
          "internalType": "uint256",
          "name": "id",
          "type": "uint256"
        },
        {
          "internalType": "uint256",
          "name": "value",
          "type": "uint256"
        },
        {
          "internalType": "bytes",
          "name": "data",
          "type": "bytes"
        }
      ],
      "name": "onERC1155Received",
      "outputs": [
        {
          "internalType": "bytes4",
          "name": "",
          "type": "bytes4"
        }
      ],
      "stateMutability": "nonpayable",
      "type": "function"
    },
    {
      "inputs": [
        {
          "internalType": "address",
          "name": "",
          "type": "address"
        },
        {
          "internalType": "address",
          "name": "from",
          "type": "address"
        },
        {
          "internalType": "uint256",
          "name": "tokenId",
          "type": "uint256"
        },
        {
          "internalType": "bytes",
          "name": "data",
          "type": "bytes"
        }
      ],
      "name": "onERC721Received",
      "outputs": [
        {
          "internalType": "bytes4",
          "name": "",
          "type": "bytes4"
        }
      ],
      "stateMutability": "nonpayable",
      "type": "function"
    },
    {
      "inputs": [
        {
          "internalType": "uint256",
          "name": "id",
          "type": "uint256"
        }
      ],
      "name": "settle",
      "outputs": [],
      "stateMutability": "nonpayable",
      "type": "function"
    },
    {
      "inputs": [
        {
          "internalType": "bytes4",
          "name": "interfaceId",
          "type": "bytes4"
        }
      ],
      "name": "supportsInterface",
      "outputs": [
        {
          "internalType": "bool",
          "name": "",
          "type": "bool"
        }
      ],
      "stateMutability": "view",
      "type": "function"
    },
    {
      "inputs": [],
      "name": "withdraw",
      "outputs": [],
      "stateMutability": "nonpayable",
      "type": "function"
    }
  ],
  "bytecode": "0x6101006040526201518060805261012c60a052600a60c052670de0b6b3a764000060e05234801561002f57600080fd5b5060805160a05160c05160e051611a986100936000396000818161040701528181611404015261142b01526000818161036901526113cf0152600081816104a00152818161147401526114ca0152600081816103bd015261120d0152611a986000f3fe6080604052600436106100e85760003560e01c806374c025981161008a578063bc197c8111610059578063bc197c8114610429578063cb0fc56d1461046e578063e75429e11461048e578063f23a6e61146104c257600080fd5b806374c02598146103575780638df828001461038b578063a271e525146103ab578063b5a13e4c146103f557600080fd5b806327e235e3116100c657806327e235e3146101975780633ccfd60b146101c4578063454a2ab3146101db578063571a26a0146101ee57600080fd5b806301ffc9a7146100ed57806310782f8f14610122578063150b7a0214610146575b600080fd5b3480156100f957600080fd5b5061010d610108366004611583565b6104e2565b60405190151581526020015b60405180910390f35b34801561012e57600080fd5b5061013860005481565b604051908152602001610119565b34801561015257600080fd5b506101666101613660046116fd565b61057b565b6040517fffffffff000000000000000000000000000000000000000000000000000000009091168152602001610119565b3480156101a357600080fd5b506101386101b2366004611769565b60026020526000908152604090205481565b3480156101d057600080fd5b506101d96105c2565b005b6101d96101e9366004611786565b6106a1565b3480156101fa57600080fd5b506102cd610209366004611786565b60016020819052600091825260409091208054918101546002820154600383015460049093015473ffffffffffffffffffffffffffffffffffffffff94851694929369ffffffffffffffffffff8316936a0100000000000000000000840461ffff16936c01000000000000000000000000810464ffffffffff169371010000000000000000000000000000000000820460ff169372010000000000000000000000000000000000009092046dffffffffffffffffffffffffffff1692918216911689565b6040805173ffffffffffffffffffffffffffffffffffffffff9a8b168152602081019990995269ffffffffffffffffffff9097169688019690965261ffff909416606087015264ffffffffff9092166080860152151560a08501526dffffffffffffffffffffffffffff1660c0840152831660e08301529190911661010082015261012001610119565b34801561036357600080fd5b506101387f000000000000000000000000000000000000000000000000000000000000000081565b34801561039757600080fd5b506101d96103a6366004611786565b610a75565b3480156103b757600080fd5b506103df7f000000000000000000000000000000000000000000000000000000000000000081565b60405164ffffffffff9091168152602001610119565b34801561040157600080fd5b506101387f000000000000000000000000000000000000000000000000000000000000000081565b34801561043557600080fd5b5061016661044436600461181f565b7fbc197c810000000000000000000000000000000000000000000000000000000095945050505050565b34801561047a57600080fd5b50610138610489366004611786565b61101e565b34801561049a57600080fd5b506103df7f000000000000000000000000000000000000000000000000000000000000000081565b3480156104ce57600080fd5b506101666104dd3660046118cd565b611118565b60007fffffffff0000000000000000000000000000000000000000000000000000000082167f4e2312e000000000000000000000000000000000000000000000000000000000148061057557507f01ffc9a7000000000000000000000000000000000000000000000000000000007fffffffff000000000000000000000000000000000000000000000000000000008316145b92915050565b60003361059781856102d16001610592888b61119d565b6111eb565b507f150b7a020000000000000000000000000000000000000000000000000000000095945050505050565b336000908152600260205260408120549081900361060c576040517fbbd8170800000000000000000000000000000000000000000000000000000000815260040160405180910390fd5b336000818152600260205260408082208290555190919083908381818185875af1925050503d806000811461065d576040519150601f19603f3d011682016040523d82523d6000602084013e610662565b606091505b505090508061069d576040517fa124823500000000000000000000000000000000000000000000000000000000815260040160405180910390fd5b5050565b60008181526001602081815260409283902060038101546002820154855161012081018752835473ffffffffffffffffffffffffffffffffffffffff9081168252958401549481019490945269ffffffffffffffffffff8116958401959095526a0100000000000000000000850461ffff1660608401526c01000000000000000000000000850464ffffffffff16608084015271010000000000000000000000000000000000850460ff16151560a084015272010000000000000000000000000000000000009094046dffffffffffffffffffffffffffff1660c0830181905293831660e0830181905260048201549093166101008301529290339034906107a890611386565b8110156107e1576040517f4285416300000000000000000000000000000000000000000000000000000000815260040160405180910390fd5b60028501546c01000000000000000000000000900464ffffffffff16421115610836576040517f69b8d0fe00000000000000000000000000000000000000000000000000000000815260040160405180910390fd5b6108408686611466565b6002850180546dffffffffffffffffffffffffffff838116720100000000000000000000000000000000000090810271ffffffffffffffffffffffffffffffffffff841681179485905560038a01805473ffffffffffffffffffffffffffffffffffffffff8981167fffffffffffffffffffffffff0000000000000000000000000000000000000000909216821790925560408051610120810182528d548416815260018e0154602082015269ffffffffffffffffffff94851694909716939093179286019290925261ffff6a0100000000000000000000870416606086015264ffffffffff6c01000000000000000000000000870416608086015260ff71010000000000000000000000000000000000870416151560a08601529190940490911660c0830181905260e08301939093526004880154166101009091015215610a285760008473ffffffffffffffffffffffffffffffffffffffff168460405160006040518083038185875af1925050503d80600081146109dd576040519150601f19603f3d011682016040523d82523d6000602084013e6109e2565b606091505b5050905080610a265773ffffffffffffffffffffffffffffffffffffffff851660009081526002602052604081208054869290610a20908490611965565b90915550505b505b8173ffffffffffffffffffffffffffffffffffffffff1681877ffd7cfbd219ff1e7365436fb2930a026fa6704a1e0bb39ad104f0485c8c01124d60405160405180910390a4505050505050565b6000818152600160205260409020600281015471010000000000000000000000000000000000900460ff1615610ad7576040517f4f4fee1700000000000000000000000000000000000000000000000000000000815260040160405180910390fd5b60028101546c01000000000000000000000000900464ffffffffff16600003610b2c576040517fe6759c6700000000000000000000000000000000000000000000000000000000815260040160405180910390fd5b60028101546c01000000000000000000000000900464ffffffffff164211610b80576040517f9510b0d600000000000000000000000000000000000000000000000000000000815260040160405180910390fd5b6040805161012081018252825473ffffffffffffffffffffffffffffffffffffffff908116825260018401546020830152600284015469ffffffffffffffffffff8116938301939093526a0100000000000000000000830461ffff1660608301526c01000000000000000000000000830464ffffffffff16608083015271010000000000000000000000000000000000830460ff16151560a083015272010000000000000000000000000000000000009092046dffffffffffffffffffffffffffff1660c082018190526003840154831660e08301526004840154909216610100909101521515600081610c8e57600483015473ffffffffffffffffffffffffffffffffffffffff16610caa565b600383015473ffffffffffffffffffffffffffffffffffffffff165b6002840180547fffffffffffffffffffffffffffff00ffffffffffffffffffffffffffffffffff167101000000000000000000000000000000000017905590508115610df3576004830154600284015460405160009273ffffffffffffffffffffffffffffffffffffffff1691720100000000000000000000000000000000000090046dffffffffffffffffffffffffffff16908381818185875af1925050503d8060008114610d76576040519150601f19603f3d011682016040523d82523d6000602084013e610d7b565b606091505b5050905080610df157600284810154600486015473ffffffffffffffffffffffffffffffffffffffff16600090815260209290925260408220805472010000000000000000000000000000000000009092046dffffffffffffffffffffffffffff16929091610deb908490611965565b90915550505b505b60028301546a0100000000000000000000900461ffff166102d103610ebb57825460018401546040517fb88d4fde00000000000000000000000000000000000000000000000000000000815230600482015273ffffffffffffffffffffffffffffffffffffffff84811660248301526044820192909252608060648201526000608482015291169063b88d4fde9060a401600060405180830381600087803b158015610e9e57600080fd5b505af1158015610eb2573d6000803e3d6000fd5b50505050610f97565b60028301546a0100000000000000000000900461ffff1661048303610f97578254600184015460028501546040517ff242432a00000000000000000000000000000000000000000000000000000000815230600482015273ffffffffffffffffffffffffffffffffffffffff8581166024830152604482019390935269ffffffffffffffffffff909116606482015260a06084820152600060a482015291169063f242432a9060c401600060405180830381600087803b158015610f7e57600080fd5b505af1158015610f92573d6000803e3d6000fd5b505050505b6004830154600284015460405172010000000000000000000000000000000000009091046dffffffffffffffffffffffffffff16815273ffffffffffffffffffffffffffffffffffffffff9182169183169086907f3e25c3675d003af5184b628dd8bd4775b9b3abc7351c3574c90870ca25b55f119060200160405180910390a450505050565b6000818152600160208181526040808420815161012081018352815473ffffffffffffffffffffffffffffffffffffffff90811682529482015493810193909352600281015469ffffffffffffffffffff8116928401929092526a0100000000000000000000820461ffff1660608401526c01000000000000000000000000820464ffffffffff16608084015271010000000000000000000000000000000000820460ff16151560a084015272010000000000000000000000000000000000009091046dffffffffffffffffffffffffffff1660c08301526003810154831660e08301526004015490911661010082015261057590611386565b600069ffffffffffffffffffff831061115d576040517f748e67b200000000000000000000000000000000000000000000000000000000815260040160405180910390fd5b33611171818661048387610592888c61119d565b507ff23a6e61000000000000000000000000000000000000000000000000000000009695505050505050565b600082516020036111e5576000838060200190518101906111be9190611978565b905073ffffffffffffffffffffffffffffffffffffffff8116156111e3579050610575565b505b50919050565b6000805490806111fa83611995565b909155506000905061123364ffffffffff7f00000000000000000000000000000000000000000000000000000000000000001642611965565b60008054815260016020818152604080842080547fffffffffffffffffffffffff000000000000000000000000000000000000000090811673ffffffffffffffffffffffffffffffffffffffff8e811691821784559583018d905560028301805469ffffffffffffffffffff8d167fffffffffffffffffffffffffffffffffffffffff000000000000000000000000909116176a010000000000000000000061ffff8f16908102919091177fffffffffffffffffffffffffffffff0000000000ffffffffffffffffffffffff166c0100000000000000000000000064ffffffffff8c1690810291909117909255600485018054909416978c169788179093559654845192835294820196909652918201939093529394509092889291907fcb1b0405c5d24f2840cd78fac5deecd67b4778ee67c494933cd568cbadbd81da9060600160405180910390a450505050505050565b60006113a58260c001516dffffffffffffffffffffffffffff16151590565b6113b157610575611570565b60c08201516dffffffffffffffffffffffffffff16600060646113f47f0000000000000000000000000000000000000000000000000000000000000000846119cd565b6113fe91906119e4565b905060007f0000000000000000000000000000000000000000000000000000000000000000821061144f577f0000000000000000000000000000000000000000000000000000000000000000611451565b815b905061145d8184611965565b95945050505050565b60028101546000906114b0907f0000000000000000000000000000000000000000000000000000000000000000906c01000000000000000000000000900464ffffffffff16611a1f565b90504264ffffffffff808316908216111561156a576114ef7f000000000000000000000000000000000000000000000000000000000000000082611a44565b6002840180547fffffffffffffffffffffffffffffff0000000000ffffffffffffffffffffffff166c0100000000000000000000000064ffffffffff9384168102919091179182905560405191049091169085907f6e912a3a9105bdd2af817ba5adc14e6c127c1035b5b648faa29ca0d58ab8ff4e90600090a35b50505050565b600061157e4861ea606119cd565b905090565b60006020828403121561159557600080fd5b81357fffffffff00000000000000000000000000000000000000000000000000000000811681146115c557600080fd5b9392505050565b73ffffffffffffffffffffffffffffffffffffffff811681146115ee57600080fd5b50565b7f4e487b7100000000000000000000000000000000000000000000000000000000600052604160045260246000fd5b604051601f82017fffffffffffffffffffffffffffffffffffffffffffffffffffffffffffffffe016810167ffffffffffffffff81118282101715611667576116676115f1565b604052919050565b600082601f83011261168057600080fd5b813567ffffffffffffffff81111561169a5761169a6115f1565b6116cb60207fffffffffffffffffffffffffffffffffffffffffffffffffffffffffffffffe0601f84011601611620565b8181528460208386010111156116e057600080fd5b816020850160208301376000918101602001919091529392505050565b6000806000806080858703121561171357600080fd5b843561171e816115cc565b9350602085013561172e816115cc565b925060408501359150606085013567ffffffffffffffff81111561175157600080fd5b61175d8782880161166f565b91505092959194509250565b60006020828403121561177b57600080fd5b81356115c5816115cc565b60006020828403121561179857600080fd5b5035919050565b600082601f8301126117b057600080fd5b8135602067ffffffffffffffff8211156117cc576117cc6115f1565b8160051b6117db828201611620565b92835284810182019282810190878511156117f557600080fd5b83870192505b84831015611814578235825291830191908301906117fb565b979650505050505050565b600080600080600060a0868803121561183757600080fd5b8535611842816115cc565b94506020860135611852816115cc565b9350604086013567ffffffffffffffff8082111561186f57600080fd5b61187b89838a0161179f565b9450606088013591508082111561189157600080fd5b61189d89838a0161179f565b935060808801359150808211156118b357600080fd5b506118c08882890161166f565b9150509295509295909350565b600080600080600060a086880312156118e557600080fd5b85356118f0816115cc565b94506020860135611900816115cc565b93506040860135925060608601359150608086013567ffffffffffffffff81111561192a57600080fd5b6118c08882890161166f565b7f4e487b7100000000000000000000000000000000000000000000000000000000600052601160045260246000fd5b8082018082111561057557610575611936565b60006020828403121561198a57600080fd5b81516115c5816115cc565b60007fffffffffffffffffffffffffffffffffffffffffffffffffffffffffffffffff82036119c6576119c6611936565b5060010190565b808202811582820484141761057557610575611936565b600082611a1a577f4e487b7100000000000000000000000000000000000000000000000000000000600052601260045260246000fd5b500490565b64ffffffffff828116828216039080821115611a3d57611a3d611936565b5092915050565b64ffffffffff818116838216019080821115611a3d57611a3d61193656fea26469706673582212209f35e836cff9940b4427a438ce0e862f6e0f8d437f4ea5a70b2ce773c7ff97d364736f6c63430008180033",
  "linkReferences": {},
  "deployedLinkReferences": {}
}