{"contracts/Auctions.sol":{"Auctions":{"abi":[{"inputs":[],"name":"AuctionAlreadySettled","type":"error"},{"inputs":[],"name":"AuctionDoesNotExist","type":"error"},{"inputs":[],"name":"AuctionNotActive","type":"error"},{"inputs":[],"name":"AuctionNotComplete","type":"error"},{"inputs":[],"name":"FailedToForwardFunds","type":"error"},{"inputs":[],"name":"InvalidAuctionParameters","type":"error"},{"inputs":[],"name":"InvalidBeneficiary","type":"error"},{"inputs":[],"name":"MinimumBidNotMet","type":"error"},{"inputs":[],"name":"NoBalanceToWithdraw","type":"error"},{"inputs":[],"name":"ReentrancyGuardReentrantCall","type":"error"},{"inputs":[],"name":"TooManyTokens","type":"error"},{"inputs":[],"name":"UnsupportedTokenStandard","type":"error"},{"anonymous":false,"inputs":[{"indexed":true,"internalType":"uint64","name":"auctionId","type":"uint64"},{"indexed":true,"internalType":"uint256","name":"endTimestamp","type":"uint256"}],"name":"AuctionExtended","type":"event"},{"anonymous":false,"inputs":[{"indexed":true,"internalType":"uint64","name":"auctionId","type":"uint64"},{"indexed":true,"internalType":"address","name":"tokenContract","type":"address"},{"indexed":true,"internalType":"uint256","name":"tokenId","type":"uint256"},{"indexed":false,"internalType":"address","name":"beneficiary","type":"address"},{"indexed":false,"internalType":"uint32","name":"endTimestamp","type":"uint32"}],"name":"AuctionInitialised","type":"event"},{"anonymous":false,"inputs":[{"indexed":true,"internalType":"uint64","name":"auctionId","type":"uint64"},{"indexed":true,"internalType":"address","name":"winner","type":"address"},{"indexed":true,"internalType":"address","name":"beneficiary","type":"address"},{"indexed":false,"internalType":"uint256","name":"amount","type":"uint256"}],"name":"AuctionSettled","type":"event"},{"anonymous":false,"inputs":[{"indexed":true,"internalType":"uint64","name":"auctionId","type":"uint64"},{"indexed":true,"internalType":"uint256","name":"bid","type":"uint256"},{"indexed":true,"internalType":"address","name":"from","type":"address"}],"name":"Bid","type":"event"},{"inputs":[],"name":"BIDDING_GRACE_PERIOD","outputs":[{"internalType":"uint32","name":"","type":"uint32"}],"stateMutability":"view","type":"function"},{"inputs":[],"name":"BID_PERCENTAGE_INCREASE","outputs":[{"internalType":"uint32","name":"","type":"uint32"}],"stateMutability":"view","type":"function"},{"inputs":[{"internalType":"uint64","name":"auctionId","type":"uint64"}],"name":"bid","outputs":[],"stateMutability":"payable","type":"function"},{"inputs":[{"internalType":"address","name":"tokenContract","type":"address"},{"internalType":"uint256","name":"tokenId","type":"uint256"},{"internalType":"uint8","name":"amount","type":"uint8"},{"internalType":"address payable","name":"beneficiary","type":"address"}],"name":"createERC1155Auction","outputs":[],"stateMutability":"nonpayable","type":"function"},{"inputs":[{"internalType":"address","name":"tokenContract","type":"address"},{"internalType":"uint256","name":"tokenId","type":"uint256"},{"internalType":"address payable","name":"beneficiary","type":"address"}],"name":"createERC721Auction","outputs":[],"stateMutability":"nonpayable","type":"function"},{"inputs":[{"internalType":"uint64","name":"auctionId","type":"uint64"}],"name":"currentBidPrice","outputs":[{"internalType":"uint256","name":"","type":"uint256"}],"stateMutability":"view","type":"function"},{"inputs":[{"internalType":"uint64","name":"auctionId","type":"uint64"}],"name":"getAuction","outputs":[{"internalType":"address","name":"tokenContract","type":"address"},{"internalType":"uint256","name":"tokenId","type":"uint256"},{"internalType":"address","name":"latestBidder","type":"address"},{"internalType":"uint128","name":"latestBid","type":"uint128"},{"internalType":"uint32","name":"endTimestamp","type":"uint32"},{"internalType":"uint16","name":"tokenERCStandard","type":"uint16"},{"internalType":"uint8","name":"tokenAmount","type":"uint8"},{"internalType":"bool","name":"settled","type":"bool"},{"internalType":"address","name":"beneficiary","type":"address"}],"stateMutability":"view","type":"function"},{"inputs":[{"internalType":"address","name":"_address","type":"address"}],"name":"getBalance","outputs":[{"internalType":"uint256","name":"","type":"uint256"}],"stateMutability":"view","type":"function"},{"inputs":[],"name":"nextAuctionId","outputs":[{"internalType":"uint64","name":"","type":"uint64"}],"stateMutability":"view","type":"function"},{"inputs":[{"internalType":"address","name":"","type":"address"},{"internalType":"address","name":"","type":"address"},{"internalType":"uint256[]","name":"","type":"uint256[]"},{"internalType":"uint256[]","name":"","type":"uint256[]"},{"internalType":"bytes","name":"","type":"bytes"}],"name":"onERC1155BatchReceived","outputs":[{"internalType":"bytes4","name":"","type":"bytes4"}],"stateMutability":"nonpayable","type":"function"},{"inputs":[{"internalType":"address","name":"operator","type":"address"},{"internalType":"address","name":"from","type":"address"},{"internalType":"uint256","name":"id","type":"uint256"},{"internalType":"uint256","name":"value","type":"uint256"},{"internalType":"bytes","name":"data","type":"bytes"}],"name":"onERC1155Received","outputs":[{"internalType":"bytes4","name":"","type":"bytes4"}],"stateMutability":"nonpayable","type":"function"},{"inputs":[{"internalType":"address","name":"operator","type":"address"},{"internalType":"address","name":"from","type":"address"},{"internalType":"uint256","name":"tokenId","type":"uint256"},{"internalType":"bytes","name":"data","type":"bytes"}],"name":"onERC721Received","outputs":[{"internalType":"bytes4","name":"","type":"bytes4"}],"stateMutability":"nonpayable","type":"function"},{"inputs":[{"internalType":"uint64","name":"auctionId","type":"uint64"}],"name":"settle","outputs":[],"stateMutability":"nonpayable","type":"function"},{"inputs":[{"internalType":"bytes4","name":"interfaceId","type":"bytes4"}],"name":"supportsInterface","outputs":[{"internalType":"bool","name":"","type":"bool"}],"stateMutability":"view","type":"function"},{"inputs":[],"name":"withdraw","outputs":[],"stateMutability":"nonpayable","type":"function"}],"evm":{"bytecode":{"linkReferences":{},"object":"608060405234801561001057600080fd5b506001600055612074806100256000396000f3fe6080604052600436106100e85760003560e01c8063838041b01161008a578063e75429e111610059578063e75429e114610460578063f23a6e6114610476578063f8b2cb4f14610496578063fc528482146104d957600080fd5b8063838041b014610222578063bc12e3d714610242578063bc197c8114610408578063c261d4561461044d57600080fd5b80633ccfd60b116100c65780633ccfd60b146101955780634b9ba446146101aa5780635e2b502b146101ca57806374c02598146101f857600080fd5b806301ffc9a7146100ed5780630ef21e2f14610122578063150b7a0214610144575b600080fd5b3480156100f957600080fd5b5061010d610108366004611aa8565b610513565b60405190151581526020015b60405180910390f35b34801561012e57600080fd5b5061014261013d366004611b13565b6105ac565b005b34801561015057600080fd5b5061016461015f366004611c61565b6106a9565b6040517fffffffff000000000000000000000000000000000000000000000000000000009091168152602001610119565b3480156101a157600080fd5b506101426106f3565b3480156101b657600080fd5b506101426101c5366004611ccd565b6107b3565b3480156101d657600080fd5b506101ea6101e5366004611ccd565b610e4c565b604051908152602001610119565b34801561020457600080fd5b5061020d600a81565b60405163ffffffff9091168152602001610119565b34801561022e57600080fd5b5061014261023d366004611cf7565b610f5e565b34801561024e57600080fd5b5061038761025d366004611ccd565b67ffffffffffffffff16600090815260026020818152604092839020835161012081018552815473ffffffffffffffffffffffffffffffffffffffff908116808352600184015494830185905294830154811695820186905260038301546fffffffffffffffffffffffffffffffff81166060840181905263ffffffff7001000000000000000000000000000000008304166080850181905261ffff7401000000000000000000000000000000000000000084041660a0860181905260ff7601000000000000000000000000000000000000000000008504811660c088018190527701000000000000000000000000000000000000000000000090950416151560e08701819052600490970154909416610100909501859052969895979690959094929391929190565b6040805173ffffffffffffffffffffffffffffffffffffffff9a8b1681526020810199909952968916968801969096526fffffffffffffffffffffffffffffffff909416606087015263ffffffff909216608086015261ffff1660a085015260ff1660c0840152151560e08301529190911661010082015261012001610119565b34801561041457600080fd5b50610164610423366004611dd0565b7fbc197c810000000000000000000000000000000000000000000000000000000095945050505050565b61014261045b366004611ccd565b6110a2565b34801561046c57600080fd5b5061020d61012c81565b34801561048257600080fd5b50610164610491366004611e7e565b6114fe565b3480156104a257600080fd5b506101ea6104b1366004611ee7565b73ffffffffffffffffffffffffffffffffffffffff1660009081526003602052604090205490565b3480156104e557600080fd5b506001546104fa9067ffffffffffffffff1681565b60405167ffffffffffffffff9091168152602001610119565b60007fffffffff0000000000000000000000000000000000000000000000000000000082167f4e2312e00000000000000000000000000000000000000000000000000000000014806105a657507f01ffc9a7000000000000000000000000000000000000000000000000000000007fffffffff000000000000000000000000000000000000000000000000000000008316145b92915050565b73ffffffffffffffffffffffffffffffffffffffff81166105f9576040517f5566df5c00000000000000000000000000000000000000000000000000000000815260040160405180910390fd5b6040517fb88d4fde00000000000000000000000000000000000000000000000000000000815233600482015230602482015260448101839052608060648201526000608482015273ffffffffffffffffffffffffffffffffffffffff84169063b88d4fde9060a401600060405180830381600087803b15801561067b57600080fd5b505af115801561068f573d6000803e3d6000fd5b505050506106a483836102d133600186611584565b505050565b6000806106b5836118a2565b90506106c833856102d188600186611584565b507f150b7a020000000000000000000000000000000000000000000000000000000095945050505050565b336000908152600360205260408120549081900361073d576040517fbbd8170800000000000000000000000000000000000000000000000000000000815260040160405180910390fd5b336000818152600360205260408082208290555190919083908381818185875af1925050503d806000811461078e576040519150601f19603f3d011682016040523d82523d6000602084013e610793565b606091505b50509050806107af573360009081526003602052604090208290555b5050565b67ffffffffffffffff81166000908152600260205260409020600381015477010000000000000000000000000000000000000000000000900460ff1615610826576040517f4f4fee1700000000000000000000000000000000000000000000000000000000815260040160405180910390fd5b6003810154700100000000000000000000000000000000900463ffffffff1660000361087e576040517fe6759c6700000000000000000000000000000000000000000000000000000000815260040160405180910390fd5b6003810154700100000000000000000000000000000000900463ffffffff1642116108d5576040517f9510b0d600000000000000000000000000000000000000000000000000000000815260040160405180910390fd5b6040805161012081018252825473ffffffffffffffffffffffffffffffffffffffff908116825260018401546020830152600284015481169282019290925260038301546fffffffffffffffffffffffffffffffff81166060830181905263ffffffff700100000000000000000000000000000000830416608084015261ffff7401000000000000000000000000000000000000000083041660a084015260ff7601000000000000000000000000000000000000000000008304811660c085015277010000000000000000000000000000000000000000000000909204909116151560e08301526004840154909216610100909101526000906109f257600282015473ffffffffffffffffffffffffffffffffffffffff16610a0e565b600282015473ffffffffffffffffffffffffffffffffffffffff165b6040805161012081018252845473ffffffffffffffffffffffffffffffffffffffff908116825260018601546020830152600286015481169282019290925260038501546fffffffffffffffffffffffffffffffff81166060830181905263ffffffff700100000000000000000000000000000000830416608084015261ffff7401000000000000000000000000000000000000000083041660a084015260ff7601000000000000000000000000000000000000000000008304811660c085015277010000000000000000000000000000000000000000000000909204909116151560e083015260048601549092166101009091015290915015610bc0576004820154600383015460405160009273ffffffffffffffffffffffffffffffffffffffff16916fffffffffffffffffffffffffffffffff16908381818185875af1925050503d8060008114610b7e576040519150601f19603f3d011682016040523d82523d6000602084013e610b83565b606091505b5050905080610bbe576040517f567654dd00000000000000000000000000000000000000000000000000000000815260040160405180910390fd5b505b600382015474010000000000000000000000000000000000000000900461ffff166102d103610c9357815460018301546040517fb88d4fde00000000000000000000000000000000000000000000000000000000815230600482015273ffffffffffffffffffffffffffffffffffffffff84811660248301526044820192909252608060648201526000608482015291169063b88d4fde9060a4015b600060405180830381600087803b158015610c7657600080fd5b505af1158015610c8a573d6000803e3d6000fd5b50505050610d8d565b600382015474010000000000000000000000000000000000000000900461ffff1661048303610d5b578154600183015460038401546040517ff242432a00000000000000000000000000000000000000000000000000000000815230600482015273ffffffffffffffffffffffffffffffffffffffff8581166024830152604482019390935276010000000000000000000000000000000000000000000090910460ff16606482015260a06084820152600060a482015291169063f242432a9060c401610c5c565b6040517f9a9d6f4f00000000000000000000000000000000000000000000000000000000815260040160405180910390fd5b600382018054770100000000000000000000000000000000000000000000007fffffffffffffffff00ffffffffffffffffffffffffffffffffffffffffffffff82161790915560048301546040516fffffffffffffffffffffffffffffffff909216825273ffffffffffffffffffffffffffffffffffffffff908116919083169067ffffffffffffffff8616907f737fa77734874d93a1af8fb7c54c41db4d1659a7542f1cf7f05bf24822d16be19060200160405180910390a4505050565b67ffffffffffffffff81166000908152600260208181526040808420815161012081018352815473ffffffffffffffffffffffffffffffffffffffff90811682526001830154948201949094529381015483169184019190915260038101546fffffffffffffffffffffffffffffffff8116606085015263ffffffff700100000000000000000000000000000000820416608085015261ffff7401000000000000000000000000000000000000000082041660a085015260ff7601000000000000000000000000000000000000000000008204811660c08601527701000000000000000000000000000000000000000000000090910416151560e084015260040154166101008201526105a6906118dd565b73ffffffffffffffffffffffffffffffffffffffff8116610fab576040517f5566df5c00000000000000000000000000000000000000000000000000000000815260040160405180910390fd5b6101008260ff1610610fe9576040517f748e67b200000000000000000000000000000000000000000000000000000000815260040160405180910390fd5b6040517ff242432a0000000000000000000000000000000000000000000000000000000081523360048201523060248201526044810184905260ff8316606482015260a06084820152600060a482015273ffffffffffffffffffffffffffffffffffffffff85169063f242432a9060c401600060405180830381600087803b15801561107457600080fd5b505af1158015611088573d6000803e3d6000fd5b5050505061109c8484610483338686611584565b50505050565b6110aa61196f565b67ffffffffffffffff8116600090815260026020818152604092839020835161012081018552815473ffffffffffffffffffffffffffffffffffffffff90811682526001830154938201939093529281015482169383019390935260038301546fffffffffffffffffffffffffffffffff8116606084015263ffffffff700100000000000000000000000000000000820416608084015261ffff7401000000000000000000000000000000000000000082041660a084015260ff7601000000000000000000000000000000000000000000008204811660c08501527701000000000000000000000000000000000000000000000090910416151560e0830152600483015416610100820152349033906111c2906118dd565b8210156111fb576040517f4285416300000000000000000000000000000000000000000000000000000000815260040160405180910390fd5b6003830154700100000000000000000000000000000000900463ffffffff16421115611253576040517f69b8d0fe00000000000000000000000000000000000000000000000000000000815260040160405180910390fd5b6040805161012081018252845473ffffffffffffffffffffffffffffffffffffffff908116825260018601546020830152600286015481169282019290925260038501546fffffffffffffffffffffffffffffffff81166060830181905263ffffffff700100000000000000000000000000000000830416608084015261ffff7401000000000000000000000000000000000000000083041660a084015260ff7601000000000000000000000000000000000000000000008304811660c085015277010000000000000000000000000000000000000000000000909204909116151560e08301526004860154909216610100909101521561142a576002830154600384015460405160009273ffffffffffffffffffffffffffffffffffffffff16916fffffffffffffffffffffffffffffffff16908381818185875af1925050503d80600081146113c0576040519150601f19603f3d011682016040523d82523d6000602084013e6113c5565b606091505b505090508061142857600380850154600286015473ffffffffffffffffffffffffffffffffffffffff1660009081526020929092526040822080546fffffffffffffffffffffffffffffffff909216929091611422908490611f33565b90915550505b505b61143484846119b2565b6003830180547fffffffffffffffffffffffffffffffff00000000000000000000000000000000166fffffffffffffffffffffffffffffffff84161790556002830180547fffffffffffffffffffffffff00000000000000000000000000000000000000001673ffffffffffffffffffffffffffffffffffffffff8316908117909155604051839067ffffffffffffffff8716907f6016e6b08f3206c629768e91bab941b1bf67a18fe2ae927ad0c7c8cbcb7c56bb90600090a45050506114fb6001600055565b50565b6000610100831061153b576040517f748e67b200000000000000000000000000000000000000000000000000000000815260040160405180910390fd5b6000611546836118a2565b90506115583386610483898886611584565b507ff23a6e61000000000000000000000000000000000000000000000000000000009695505050505050565b6040518061012001604052808773ffffffffffffffffffffffffffffffffffffffff1681526020018681526020018473ffffffffffffffffffffffffffffffffffffffff16815260200160006fffffffffffffffffffffffffffffffff16815260200142620151806115f69190611f33565b63ffffffff908116825261ffff80881660208085019190915260ff8088166040808701919091526000606080880182905273ffffffffffffffffffffffffffffffffffffffff808b166080998a01526001805467ffffffffffffffff90811685526002808952948690208c5181549085167fffffffffffffffffffffffff0000000000000000000000000000000000000000918216178255988d015181840155958c0151948601805495841695891695909517909455918a01516003850180549a8c015160a08d015160c08e015160e08f0151151577010000000000000000000000000000000000000000000000027fffffffffffffffff00ffffffffffffffffffffffffffffffffffffffffffffff91909a16760100000000000000000000000000000000000000000000027fffffffffffffffffff00ffffffffffffffffffffffffffffffffffffffffffff92909c167401000000000000000000000000000000000000000002919091167fffffffffffffffffff000000ffffffffffffffffffffffffffffffffffffffff92909c16700100000000000000000000000000000000029c8a166fffffffffffffffffffffffffffffffff909416939093179b909b179a909a1698909817969096179690961692909217909555610100959095015160049094018054948316949091169390931790925554879291891691167f2ba1527d484fff3b252d1eb5e2b408313b8b6524bf81f26d90cdba87e7f92637846118254262015180611f33565b6040805173ffffffffffffffffffffffffffffffffffffffff909316835263ffffffff90911660208301520160405180910390a46001805467ffffffffffffffff1690600061187383611f46565b91906101000a81548167ffffffffffffffff021916908367ffffffffffffffff16021790555050505050505050565b6000818060200190518101906118b89190611f6d565b905073ffffffffffffffffffffffffffffffffffffffff81166118d85750335b919050565b60006118fe82606001516fffffffffffffffffffffffffffffffff16151590565b61190a576105a6611a95565b60006064611919600a82611f8a565b63ffffffff1684606001516fffffffffffffffffffffffffffffffff166119409190611fae565b61194a9190611fc5565b90506000611956611a95565b90508082106119655781611967565b805b949350505050565b6002600054036119ab576040517f3ee5aeb500000000000000000000000000000000000000000000000000000000815260040160405180910390fd5b6002600055565b60038101546000906119e19061012c90700100000000000000000000000000000000900463ffffffff16612000565b63ffffffff1690504267ffffffffffffffff811682101561109c57611a0861012c8261201d565b6003840180547fffffffffffffffffffffffff00000000ffffffffffffffffffffffffffffffff1670010000000000000000000000000000000063ffffffff9384168102919091179182905560405191049091169067ffffffffffffffff8616907fb4a60ebc2cf1c50677776bb7f2aea10caa932a042d60d2ac4697ef6d9cb8afb090600090a350505050565b6000611aa34861ea60611fae565b905090565b600060208284031215611aba57600080fd5b81357fffffffff0000000000000000000000000000000000000000000000000000000081168114611aea57600080fd5b9392505050565b73ffffffffffffffffffffffffffffffffffffffff811681146114fb57600080fd5b600080600060608486031215611b2857600080fd5b8335611b3381611af1565b9250602084013591506040840135611b4a81611af1565b809150509250925092565b7f4e487b7100000000000000000000000000000000000000000000000000000000600052604160045260246000fd5b604051601f82017fffffffffffffffffffffffffffffffffffffffffffffffffffffffffffffffe016810167ffffffffffffffff81118282101715611bcb57611bcb611b55565b604052919050565b600082601f830112611be457600080fd5b813567ffffffffffffffff811115611bfe57611bfe611b55565b611c2f60207fffffffffffffffffffffffffffffffffffffffffffffffffffffffffffffffe0601f84011601611b84565b818152846020838601011115611c4457600080fd5b816020850160208301376000918101602001919091529392505050565b60008060008060808587031215611c7757600080fd5b8435611c8281611af1565b93506020850135611c9281611af1565b925060408501359150606085013567ffffffffffffffff811115611cb557600080fd5b611cc187828801611bd3565b91505092959194509250565b600060208284031215611cdf57600080fd5b813567ffffffffffffffff81168114611aea57600080fd5b60008060008060808587031215611d0d57600080fd5b8435611d1881611af1565b935060208501359250604085013560ff81168114611d3557600080fd5b91506060850135611d4581611af1565b939692955090935050565b600082601f830112611d6157600080fd5b8135602067ffffffffffffffff821115611d7d57611d7d611b55565b8160051b611d8c828201611b84565b9283528481018201928281019087851115611da657600080fd5b83870192505b84831015611dc557823582529183019190830190611dac565b979650505050505050565b600080600080600060a08688031215611de857600080fd5b8535611df381611af1565b94506020860135611e0381611af1565b9350604086013567ffffffffffffffff80821115611e2057600080fd5b611e2c89838a01611d50565b94506060880135915080821115611e4257600080fd5b611e4e89838a01611d50565b93506080880135915080821115611e6457600080fd5b50611e7188828901611bd3565b9150509295509295909350565b600080600080600060a08688031215611e9657600080fd5b8535611ea181611af1565b94506020860135611eb181611af1565b93506040860135925060608601359150608086013567ffffffffffffffff811115611edb57600080fd5b611e7188828901611bd3565b600060208284031215611ef957600080fd5b8135611aea81611af1565b7f4e487b7100000000000000000000000000000000000000000000000000000000600052601160045260246000fd5b808201808211156105a6576105a6611f04565b600067ffffffffffffffff808316818103611f6357611f63611f04565b6001019392505050565b600060208284031215611f7f57600080fd5b8151611aea81611af1565b63ffffffff818116838216019080821115611fa757611fa7611f04565b5092915050565b80820281158282048414176105a6576105a6611f04565b600082611ffb577f4e487b7100000000000000000000000000000000000000000000000000000000600052601260045260246000fd5b500490565b63ffffffff828116828216039080821115611fa757611fa7611f04565b67ffffffffffffffff818116838216019080821115611fa757611fa7611f0456fea264697066735822122023d66c2c2f87845c3176bd16dc1739a42b75e877abd5cfdceecdfc46f2160ba564736f6c63430008180033","opcodes":"PUSH1 0x80 PUSH1 0x40 MSTORE CALLVALUE DUP1 ISZERO PUSH2 0x10 JUMPI PUSH1 0x0 DUP1 REVERT JUMPDEST POP PUSH1 0x1 PUSH1 0x0 SSTORE PUSH2 0x2074 DUP1 PUSH2 0x25 PUSH1 0x0 CODECOPY PUSH1 0x0 RETURN INVALID PUSH1 0x80 PUSH1 0x40 MSTORE PUSH1 0x4 CALLDATASIZE LT PUSH2 0xE8 JUMPI PUSH1 0x0 CALLDATALOAD PUSH1 0xE0 SHR DUP1 PUSH4 0x838041B0 GT PUSH2 0x8A JUMPI DUP1 PUSH4 0xE75429E1 GT PUSH2 0x59 JUMPI DUP1 PUSH4 0xE75429E1 EQ PUSH2 0x460 JUMPI DUP1 PUSH4 0xF23A6E61 EQ PUSH2 0x476 JUMPI DUP1 PUSH4 0xF8B2CB4F EQ PUSH2 0x496 JUMPI DUP1 PUSH4 0xFC528482 EQ PUSH2 0x4D9 JUMPI PUSH1 0x0 DUP1 REVERT JUMPDEST DUP1 PUSH4 0x838041B0 EQ PUSH2 0x222 JUMPI DUP1 PUSH4 0xBC12E3D7 EQ PUSH2 0x242 JUMPI DUP1 PUSH4 0xBC197C81 EQ PUSH2 0x408 JUMPI DUP1 PUSH4 0xC261D456 EQ PUSH2 0x44D JUMPI PUSH1 0x0 DUP1 REVERT JUMPDEST DUP1 PUSH4 0x3CCFD60B GT PUSH2 0xC6 JUMPI DUP1 PUSH4 0x3CCFD60B EQ PUSH2 0x195 JUMPI DUP1 PUSH4 0x4B9BA446 EQ PUSH2 0x1AA JUMPI DUP1 PUSH4 0x5E2B502B EQ PUSH2 0x1CA JUMPI DUP1 PUSH4 0x74C02598 EQ PUSH2 0x1F8 JUMPI PUSH1 0x0 DUP1 REVERT JUMPDEST DUP1 PUSH4 0x1FFC9A7 EQ PUSH2 0xED JUMPI DUP1 PUSH4 0xEF21E2F EQ PUSH2 0x122 JUMPI DUP1 PUSH4 0x150B7A02 EQ PUSH2 0x144 JUMPI JUMPDEST PUSH1 0x0 DUP1 REVERT JUMPDEST CALLVALUE DUP1 ISZERO PUSH2 0xF9 JUMPI PUSH1 0x0 DUP1 REVERT JUMPDEST POP PUSH2 0x10D PUSH2 0x108 CALLDATASIZE PUSH1 0x4 PUSH2 0x1AA8 JUMP JUMPDEST PUSH2 0x513 JUMP JUMPDEST PUSH1 0x40 MLOAD SWAP1 ISZERO ISZERO DUP2 MSTORE PUSH1 0x20 ADD JUMPDEST PUSH1 0x40 MLOAD DUP1 SWAP2 SUB SWAP1 RETURN JUMPDEST CALLVALUE DUP1 ISZERO PUSH2 0x12E JUMPI PUSH1 0x0 DUP1 REVERT JUMPDEST POP PUSH2 0x142 PUSH2 0x13D CALLDATASIZE PUSH1 0x4 PUSH2 0x1B13 JUMP JUMPDEST PUSH2 0x5AC JUMP JUMPDEST STOP JUMPDEST CALLVALUE DUP1 ISZERO PUSH2 0x150 JUMPI PUSH1 0x0 DUP1 REVERT JUMPDEST POP PUSH2 0x164 PUSH2 0x15F CALLDATASIZE PUSH1 0x4 PUSH2 0x1C61 JUMP JUMPDEST PUSH2 0x6A9 JUMP JUMPDEST PUSH1 0x40 MLOAD PUSH32 0xFFFFFFFF00000000000000000000000000000000000000000000000000000000 SWAP1 SWAP2 AND DUP2 MSTORE PUSH1 0x20 ADD PUSH2 0x119 JUMP JUMPDEST CALLVALUE DUP1 ISZERO PUSH2 0x1A1 JUMPI PUSH1 0x0 DUP1 REVERT JUMPDEST POP PUSH2 0x142 PUSH2 0x6F3 JUMP JUMPDEST CALLVALUE DUP1 ISZERO PUSH2 0x1B6 JUMPI PUSH1 0x0 DUP1 REVERT JUMPDEST POP PUSH2 0x142 PUSH2 0x1C5 CALLDATASIZE PUSH1 0x4 PUSH2 0x1CCD JUMP JUMPDEST PUSH2 0x7B3 JUMP JUMPDEST CALLVALUE DUP1 ISZERO PUSH2 0x1D6 JUMPI PUSH1 0x0 DUP1 REVERT JUMPDEST POP PUSH2 0x1EA PUSH2 0x1E5 CALLDATASIZE PUSH1 0x4 PUSH2 0x1CCD JUMP JUMPDEST PUSH2 0xE4C JUMP JUMPDEST PUSH1 0x40 MLOAD SWAP1 DUP2 MSTORE PUSH1 0x20 ADD PUSH2 0x119 JUMP JUMPDEST CALLVALUE DUP1 ISZERO PUSH2 0x204 JUMPI PUSH1 0x0 DUP1 REVERT JUMPDEST POP PUSH2 0x20D PUSH1 0xA DUP2 JUMP JUMPDEST PUSH1 0x40 MLOAD PUSH4 0xFFFFFFFF SWAP1 SWAP2 AND DUP2 MSTORE PUSH1 0x20 ADD PUSH2 0x119 JUMP JUMPDEST CALLVALUE DUP1 ISZERO PUSH2 0x22E JUMPI PUSH1 0x0 DUP1 REVERT JUMPDEST POP PUSH2 0x142 PUSH2 0x23D CALLDATASIZE PUSH1 0x4 PUSH2 0x1CF7 JUMP JUMPDEST PUSH2 0xF5E JUMP JUMPDEST CALLVALUE DUP1 ISZERO PUSH2 0x24E JUMPI PUSH1 0x0 DUP1 REVERT JUMPDEST POP PUSH2 0x387 PUSH2 0x25D CALLDATASIZE PUSH1 0x4 PUSH2 0x1CCD JUMP JUMPDEST PUSH8 0xFFFFFFFFFFFFFFFF AND PUSH1 0x0 SWAP1 DUP2 MSTORE PUSH1 0x2 PUSH1 0x20 DUP2 DUP2 MSTORE PUSH1 0x40 SWAP3 DUP4 SWAP1 KECCAK256 DUP4 MLOAD PUSH2 0x120 DUP2 ADD DUP6 MSTORE DUP2 SLOAD PUSH20 0xFFFFFFFFFFFFFFFFFFFFFFFFFFFFFFFFFFFFFFFF SWAP1 DUP2 AND DUP1 DUP4 MSTORE PUSH1 0x1 DUP5 ADD SLOAD SWAP5 DUP4 ADD DUP6 SWAP1 MSTORE SWAP5 DUP4 ADD SLOAD DUP2 AND SWAP6 DUP3 ADD DUP7 SWAP1 MSTORE PUSH1 0x3 DUP4 ADD SLOAD PUSH16 0xFFFFFFFFFFFFFFFFFFFFFFFFFFFFFFFF DUP2 AND PUSH1 0x60 DUP5 ADD DUP2 SWAP1 MSTORE PUSH4 0xFFFFFFFF PUSH17 0x100000000000000000000000000000000 DUP4 DIV AND PUSH1 0x80 DUP6 ADD DUP2 SWAP1 MSTORE PUSH2 0xFFFF PUSH21 0x10000000000000000000000000000000000000000 DUP5 DIV AND PUSH1 0xA0 DUP7 ADD DUP2 SWAP1 MSTORE PUSH1 0xFF PUSH23 0x100000000000000000000000000000000000000000000 DUP6 DIV DUP2 AND PUSH1 0xC0 DUP9 ADD DUP2 SWAP1 MSTORE PUSH24 0x10000000000000000000000000000000000000000000000 SWAP1 SWAP6 DIV AND ISZERO ISZERO PUSH1 0xE0 DUP8 ADD DUP2 SWAP1 MSTORE PUSH1 0x4 SWAP1 SWAP8 ADD SLOAD SWAP1 SWAP5 AND PUSH2 0x100 SWAP1 SWAP6 ADD DUP6 SWAP1 MSTORE SWAP7 SWAP9 SWAP6 SWAP8 SWAP7 SWAP1 SWAP6 SWAP1 SWAP5 SWAP3 SWAP4 SWAP2 SWAP3 SWAP2 SWAP1 JUMP JUMPDEST PUSH1 0x40 DUP1 MLOAD PUSH20 0xFFFFFFFFFFFFFFFFFFFFFFFFFFFFFFFFFFFFFFFF SWAP11 DUP12 AND DUP2 MSTORE PUSH1 0x20 DUP2 ADD SWAP10 SWAP1 SWAP10 MSTORE SWAP7 DUP10 AND SWAP7 DUP9 ADD SWAP7 SWAP1 SWAP7 MSTORE PUSH16 0xFFFFFFFFFFFFFFFFFFFFFFFFFFFFFFFF SWAP1 SWAP5 AND PUSH1 0x60 DUP8 ADD MSTORE PUSH4 0xFFFFFFFF SWAP1 SWAP3 AND PUSH1 0x80 DUP7 ADD MSTORE PUSH2 0xFFFF AND PUSH1 0xA0 DUP6 ADD MSTORE PUSH1 0xFF AND PUSH1 0xC0 DUP5 ADD MSTORE ISZERO ISZERO PUSH1 0xE0 DUP4 ADD MSTORE SWAP2 SWAP1 SWAP2 AND PUSH2 0x100 DUP3 ADD MSTORE PUSH2 0x120 ADD PUSH2 0x119 JUMP JUMPDEST CALLVALUE DUP1 ISZERO PUSH2 0x414 JUMPI PUSH1 0x0 DUP1 REVERT JUMPDEST POP PUSH2 0x164 PUSH2 0x423 CALLDATASIZE PUSH1 0x4 PUSH2 0x1DD0 JUMP JUMPDEST PUSH32 0xBC197C8100000000000000000000000000000000000000000000000000000000 SWAP6 SWAP5 POP POP POP POP POP JUMP JUMPDEST PUSH2 0x142 PUSH2 0x45B CALLDATASIZE PUSH1 0x4 PUSH2 0x1CCD JUMP JUMPDEST PUSH2 0x10A2 JUMP JUMPDEST CALLVALUE DUP1 ISZERO PUSH2 0x46C JUMPI PUSH1 0x0 DUP1 REVERT JUMPDEST POP PUSH2 0x20D PUSH2 0x12C DUP2 JUMP JUMPDEST CALLVALUE DUP1 ISZERO PUSH2 0x482 JUMPI PUSH1 0x0 DUP1 REVERT JUMPDEST POP PUSH2 0x164 PUSH2 0x491 CALLDATASIZE PUSH1 0x4 PUSH2 0x1E7E JUMP JUMPDEST PUSH2 0x14FE JUMP JUMPDEST CALLVALUE DUP1 ISZERO PUSH2 0x4A2 JUMPI PUSH1 0x0 DUP1 REVERT JUMPDEST POP PUSH2 0x1EA PUSH2 0x4B1 CALLDATASIZE PUSH1 0x4 PUSH2 0x1EE7 JUMP JUMPDEST PUSH20 0xFFFFFFFFFFFFFFFFFFFFFFFFFFFFFFFFFFFFFFFF AND PUSH1 0x0 SWAP1 DUP2 MSTORE PUSH1 0x3 PUSH1 0x20 MSTORE PUSH1 0x40 SWAP1 KECCAK256 SLOAD SWAP1 JUMP JUMPDEST CALLVALUE DUP1 ISZERO PUSH2 0x4E5 JUMPI PUSH1 0x0 DUP1 REVERT JUMPDEST POP PUSH1 0x1 SLOAD PUSH2 0x4FA SWAP1 PUSH8 0xFFFFFFFFFFFFFFFF AND DUP2 JUMP JUMPDEST PUSH1 0x40 MLOAD PUSH8 0xFFFFFFFFFFFFFFFF SWAP1 SWAP2 AND DUP2 MSTORE PUSH1 0x20 ADD PUSH2 0x119 JUMP JUMPDEST PUSH1 0x0 PUSH32 0xFFFFFFFF00000000000000000000000000000000000000000000000000000000 DUP3 AND PUSH32 0x4E2312E000000000000000000000000000000000000000000000000000000000 EQ DUP1 PUSH2 0x5A6 JUMPI POP PUSH32 0x1FFC9A700000000000000000000000000000000000000000000000000000000 PUSH32 0xFFFFFFFF00000000000000000000000000000000000000000000000000000000 DUP4 AND EQ JUMPDEST SWAP3 SWAP2 POP POP JUMP JUMPDEST PUSH20 0xFFFFFFFFFFFFFFFFFFFFFFFFFFFFFFFFFFFFFFFF DUP2 AND PUSH2 0x5F9 JUMPI PUSH1 0x40 MLOAD PUSH32 0x5566DF5C00000000000000000000000000000000000000000000000000000000 DUP2 MSTORE PUSH1 0x4 ADD PUSH1 0x40 MLOAD DUP1 SWAP2 SUB SWAP1 REVERT JUMPDEST PUSH1 0x40 MLOAD PUSH32 0xB88D4FDE00000000000000000000000000000000000000000000000000000000 DUP2 MSTORE CALLER PUSH1 0x4 DUP3 ADD MSTORE ADDRESS PUSH1 0x24 DUP3 ADD MSTORE PUSH1 0x44 DUP2 ADD DUP4 SWAP1 MSTORE PUSH1 0x80 PUSH1 0x64 DUP3 ADD MSTORE PUSH1 0x0 PUSH1 0x84 DUP3 ADD MSTORE PUSH20 0xFFFFFFFFFFFFFFFFFFFFFFFFFFFFFFFFFFFFFFFF DUP5 AND SWAP1 PUSH4 0xB88D4FDE SWAP1 PUSH1 0xA4 ADD PUSH1 0x0 PUSH1 0x40 MLOAD DUP1 DUP4 SUB DUP2 PUSH1 0x0 DUP8 DUP1 EXTCODESIZE ISZERO DUP1 ISZERO PUSH2 0x67B JUMPI PUSH1 0x0 DUP1 REVERT JUMPDEST POP GAS CALL ISZERO DUP1 ISZERO PUSH2 0x68F JUMPI RETURNDATASIZE PUSH1 0x0 DUP1 RETURNDATACOPY RETURNDATASIZE PUSH1 0x0 REVERT JUMPDEST POP POP POP POP PUSH2 0x6A4 DUP4 DUP4 PUSH2 0x2D1 CALLER PUSH1 0x1 DUP7 PUSH2 0x1584 JUMP JUMPDEST POP POP POP JUMP JUMPDEST PUSH1 0x0 DUP1 PUSH2 0x6B5 DUP4 PUSH2 0x18A2 JUMP JUMPDEST SWAP1 POP PUSH2 0x6C8 CALLER DUP6 PUSH2 0x2D1 DUP9 PUSH1 0x1 DUP7 PUSH2 0x1584 JUMP JUMPDEST POP PUSH32 0x150B7A0200000000000000000000000000000000000000000000000000000000 SWAP6 SWAP5 POP POP POP POP POP JUMP JUMPDEST CALLER PUSH1 0x0 SWAP1 DUP2 MSTORE PUSH1 0x3 PUSH1 0x20 MSTORE PUSH1 0x40 DUP2 KECCAK256 SLOAD SWAP1 DUP2 SWAP1 SUB PUSH2 0x73D JUMPI PUSH1 0x40 MLOAD PUSH32 0xBBD8170800000000000000000000000000000000000000000000000000000000 DUP2 MSTORE PUSH1 0x4 ADD PUSH1 0x40 MLOAD DUP1 SWAP2 SUB SWAP1 REVERT JUMPDEST CALLER PUSH1 0x0 DUP2 DUP2 MSTORE PUSH1 0x3 PUSH1 0x20 MSTORE PUSH1 0x40 DUP1 DUP3 KECCAK256 DUP3 SWAP1 SSTORE MLOAD SWAP1 SWAP2 SWAP1 DUP4 SWAP1 DUP4 DUP2 DUP2 DUP2 DUP6 DUP8 GAS CALL SWAP3 POP POP POP RETURNDATASIZE DUP1 PUSH1 0x0 DUP2 EQ PUSH2 0x78E JUMPI PUSH1 0x40 MLOAD SWAP2 POP PUSH1 0x1F NOT PUSH1 0x3F RETURNDATASIZE ADD AND DUP3 ADD PUSH1 0x40 MSTORE RETURNDATASIZE DUP3 MSTORE RETURNDATASIZE PUSH1 0x0 PUSH1 0x20 DUP5 ADD RETURNDATACOPY PUSH2 0x793 JUMP JUMPDEST PUSH1 0x60 SWAP2 POP JUMPDEST POP POP SWAP1 POP DUP1 PUSH2 0x7AF JUMPI CALLER PUSH1 0x0 SWAP1 DUP2 MSTORE PUSH1 0x3 PUSH1 0x20 MSTORE PUSH1 0x40 SWAP1 KECCAK256 DUP3 SWAP1 SSTORE JUMPDEST POP POP JUMP JUMPDEST PUSH8 0xFFFFFFFFFFFFFFFF DUP2 AND PUSH1 0x0 SWAP1 DUP2 MSTORE PUSH1 0x2 PUSH1 0x20 MSTORE PUSH1 0x40 SWAP1 KECCAK256 PUSH1 0x3 DUP2 ADD SLOAD PUSH24 0x10000000000000000000000000000000000000000000000 SWAP1 DIV PUSH1 0xFF AND ISZERO PUSH2 0x826 JUMPI PUSH1 0x40 MLOAD PUSH32 0x4F4FEE1700000000000000000000000000000000000000000000000000000000 DUP2 MSTORE PUSH1 0x4 ADD PUSH1 0x40 MLOAD DUP1 SWAP2 SUB SWAP1 REVERT JUMPDEST PUSH1 0x3 DUP2 ADD SLOAD PUSH17 0x100000000000000000000000000000000 SWAP1 DIV PUSH4 0xFFFFFFFF AND PUSH1 0x0 SUB PUSH2 0x87E JUMPI PUSH1 0x40 MLOAD PUSH32 0xE6759C6700000000000000000000000000000000000000000000000000000000 DUP2 MSTORE PUSH1 0x4 ADD PUSH1 0x40 MLOAD DUP1 SWAP2 SUB SWAP1 REVERT JUMPDEST PUSH1 0x3 DUP2 ADD SLOAD PUSH17 0x100000000000000000000000000000000 SWAP1 DIV PUSH4 0xFFFFFFFF AND TIMESTAMP GT PUSH2 0x8D5 JUMPI PUSH1 0x40 MLOAD PUSH32 0x9510B0D600000000000000000000000000000000000000000000000000000000 DUP2 MSTORE PUSH1 0x4 ADD PUSH1 0x40 MLOAD DUP1 SWAP2 SUB SWAP1 REVERT JUMPDEST PUSH1 0x40 DUP1 MLOAD PUSH2 0x120 DUP2 ADD DUP3 MSTORE DUP3 SLOAD PUSH20 0xFFFFFFFFFFFFFFFFFFFFFFFFFFFFFFFFFFFFFFFF SWAP1 DUP2 AND DUP3 MSTORE PUSH1 0x1 DUP5 ADD SLOAD PUSH1 0x20 DUP4 ADD MSTORE PUSH1 0x2 DUP5 ADD SLOAD DUP2 AND SWAP3 DUP3 ADD SWAP3 SWAP1 SWAP3 MSTORE PUSH1 0x3 DUP4 ADD SLOAD PUSH16 0xFFFFFFFFFFFFFFFFFFFFFFFFFFFFFFFF DUP2 AND PUSH1 0x60 DUP4 ADD DUP2 SWAP1 MSTORE PUSH4 0xFFFFFFFF PUSH17 0x100000000000000000000000000000000 DUP4 DIV AND PUSH1 0x80 DUP5 ADD MSTORE PUSH2 0xFFFF PUSH21 0x10000000000000000000000000000000000000000 DUP4 DIV AND PUSH1 0xA0 DUP5 ADD MSTORE PUSH1 0xFF PUSH23 0x100000000000000000000000000000000000000000000 DUP4 DIV DUP2 AND PUSH1 0xC0 DUP6 ADD MSTORE PUSH24 0x10000000000000000000000000000000000000000000000 SWAP1 SWAP3 DIV SWAP1 SWAP2 AND ISZERO ISZERO PUSH1 0xE0 DUP4 ADD MSTORE PUSH1 0x4 DUP5 ADD SLOAD SWAP1 SWAP3 AND PUSH2 0x100 SWAP1 SWAP2 ADD MSTORE PUSH1 0x0 SWAP1 PUSH2 0x9F2 JUMPI PUSH1 0x2 DUP3 ADD SLOAD PUSH20 0xFFFFFFFFFFFFFFFFFFFFFFFFFFFFFFFFFFFFFFFF AND PUSH2 0xA0E JUMP JUMPDEST PUSH1 0x2 DUP3 ADD SLOAD PUSH20 0xFFFFFFFFFFFFFFFFFFFFFFFFFFFFFFFFFFFFFFFF AND JUMPDEST PUSH1 0x40 DUP1 MLOAD PUSH2 0x120 DUP2 ADD DUP3 MSTORE DUP5 SLOAD PUSH20 0xFFFFFFFFFFFFFFFFFFFFFFFFFFFFFFFFFFFFFFFF SWAP1 DUP2 AND DUP3 MSTORE PUSH1 0x1 DUP7 ADD SLOAD PUSH1 0x20 DUP4 ADD MSTORE PUSH1 0x2 DUP7 ADD SLOAD DUP2 AND SWAP3 DUP3 ADD SWAP3 SWAP1 SWAP3 MSTORE PUSH1 0x3 DUP6 ADD SLOAD PUSH16 0xFFFFFFFFFFFFFFFFFFFFFFFFFFFFFFFF DUP2 AND PUSH1 0x60 DUP4 ADD DUP2 SWAP1 MSTORE PUSH4 0xFFFFFFFF PUSH17 0x100000000000000000000000000000000 DUP4 DIV AND PUSH1 0x80 DUP5 ADD MSTORE PUSH2 0xFFFF PUSH21 0x10000000000000000000000000000000000000000 DUP4 DIV AND PUSH1 0xA0 DUP5 ADD MSTORE PUSH1 0xFF PUSH23 0x100000000000000000000000000000000000000000000 DUP4 DIV DUP2 AND PUSH1 0xC0 DUP6 ADD MSTORE PUSH24 0x10000000000000000000000000000000000000000000000 SWAP1 SWAP3 DIV SWAP1 SWAP2 AND ISZERO ISZERO PUSH1 0xE0 DUP4 ADD MSTORE PUSH1 0x4 DUP7 ADD SLOAD SWAP1 SWAP3 AND PUSH2 0x100 SWAP1 SWAP2 ADD MSTORE SWAP1 SWAP2 POP ISZERO PUSH2 0xBC0 JUMPI PUSH1 0x4 DUP3 ADD SLOAD PUSH1 0x3 DUP4 ADD SLOAD PUSH1 0x40 MLOAD PUSH1 0x0 SWAP3 PUSH20 0xFFFFFFFFFFFFFFFFFFFFFFFFFFFFFFFFFFFFFFFF AND SWAP2 PUSH16 0xFFFFFFFFFFFFFFFFFFFFFFFFFFFFFFFF AND SWAP1 DUP4 DUP2 DUP2 DUP2 DUP6 DUP8 GAS CALL SWAP3 POP POP POP RETURNDATASIZE DUP1 PUSH1 0x0 DUP2 EQ PUSH2 0xB7E JUMPI PUSH1 0x40 MLOAD SWAP2 POP PUSH1 0x1F NOT PUSH1 0x3F RETURNDATASIZE ADD AND DUP3 ADD PUSH1 0x40 MSTORE RETURNDATASIZE DUP3 MSTORE RETURNDATASIZE PUSH1 0x0 PUSH1 0x20 DUP5 ADD RETURNDATACOPY PUSH2 0xB83 JUMP JUMPDEST PUSH1 0x60 SWAP2 POP JUMPDEST POP POP SWAP1 POP DUP1 PUSH2 0xBBE JUMPI PUSH1 0x40 MLOAD PUSH32 0x567654DD00000000000000000000000000000000000000000000000000000000 DUP2 MSTORE PUSH1 0x4 ADD PUSH1 0x40 MLOAD DUP1 SWAP2 SUB SWAP1 REVERT JUMPDEST POP JUMPDEST PUSH1 0x3 DUP3 ADD SLOAD PUSH21 0x10000000000000000000000000000000000000000 SWAP1 DIV PUSH2 0xFFFF AND PUSH2 0x2D1 SUB PUSH2 0xC93 JUMPI DUP2 SLOAD PUSH1 0x1 DUP4 ADD SLOAD PUSH1 0x40 MLOAD PUSH32 0xB88D4FDE00000000000000000000000000000000000000000000000000000000 DUP2 MSTORE ADDRESS PUSH1 0x4 DUP3 ADD MSTORE PUSH20 0xFFFFFFFFFFFFFFFFFFFFFFFFFFFFFFFFFFFFFFFF DUP5 DUP2 AND PUSH1 0x24 DUP4 ADD MSTORE PUSH1 0x44 DUP3 ADD SWAP3 SWAP1 SWAP3 MSTORE PUSH1 0x80 PUSH1 0x64 DUP3 ADD MSTORE PUSH1 0x0 PUSH1 0x84 DUP3 ADD MSTORE SWAP2 AND SWAP1 PUSH4 0xB88D4FDE SWAP1 PUSH1 0xA4 ADD JUMPDEST PUSH1 0x0 PUSH1 0x40 MLOAD DUP1 DUP4 SUB DUP2 PUSH1 0x0 DUP8 DUP1 EXTCODESIZE ISZERO DUP1 ISZERO PUSH2 0xC76 JUMPI PUSH1 0x0 DUP1 REVERT JUMPDEST POP GAS CALL ISZERO DUP1 ISZERO PUSH2 0xC8A JUMPI RETURNDATASIZE PUSH1 0x0 DUP1 RETURNDATACOPY RETURNDATASIZE PUSH1 0x0 REVERT JUMPDEST POP POP POP POP PUSH2 0xD8D JUMP JUMPDEST PUSH1 0x3 DUP3 ADD SLOAD PUSH21 0x10000000000000000000000000000000000000000 SWAP1 DIV PUSH2 0xFFFF AND PUSH2 0x483 SUB PUSH2 0xD5B JUMPI DUP2 SLOAD PUSH1 0x1 DUP4 ADD SLOAD PUSH1 0x3 DUP5 ADD SLOAD PUSH1 0x40 MLOAD PUSH32 0xF242432A00000000000000000000000000000000000000000000000000000000 DUP2 MSTORE ADDRESS PUSH1 0x4 DUP3 ADD MSTORE PUSH20 0xFFFFFFFFFFFFFFFFFFFFFFFFFFFFFFFFFFFFFFFF DUP6 DUP2 AND PUSH1 0x24 DUP4 ADD MSTORE PUSH1 0x44 DUP3 ADD SWAP4 SWAP1 SWAP4 MSTORE PUSH23 0x100000000000000000000000000000000000000000000 SWAP1 SWAP2 DIV PUSH1 0xFF AND PUSH1 0x64 DUP3 ADD MSTORE PUSH1 0xA0 PUSH1 0x84 DUP3 ADD MSTORE PUSH1 0x0 PUSH1 0xA4 DUP3 ADD MSTORE SWAP2 AND SWAP1 PUSH4 0xF242432A SWAP1 PUSH1 0xC4 ADD PUSH2 0xC5C JUMP JUMPDEST PUSH1 0x40 MLOAD PUSH32 0x9A9D6F4F00000000000000000000000000000000000000000000000000000000 DUP2 MSTORE PUSH1 0x4 ADD PUSH1 0x40 MLOAD DUP1 SWAP2 SUB SWAP1 REVERT JUMPDEST PUSH1 0x3 DUP3 ADD DUP1 SLOAD PUSH24 0x10000000000000000000000000000000000000000000000 PUSH32 0xFFFFFFFFFFFFFFFF00FFFFFFFFFFFFFFFFFFFFFFFFFFFFFFFFFFFFFFFFFFFFFF DUP3 AND OR SWAP1 SWAP2 SSTORE PUSH1 0x4 DUP4 ADD SLOAD PUSH1 0x40 MLOAD PUSH16 0xFFFFFFFFFFFFFFFFFFFFFFFFFFFFFFFF SWAP1 SWAP3 AND DUP3 MSTORE PUSH20 0xFFFFFFFFFFFFFFFFFFFFFFFFFFFFFFFFFFFFFFFF SWAP1 DUP2 AND SWAP2 SWAP1 DUP4 AND SWAP1 PUSH8 0xFFFFFFFFFFFFFFFF DUP7 AND SWAP1 PUSH32 0x737FA77734874D93A1AF8FB7C54C41DB4D1659A7542F1CF7F05BF24822D16BE1 SWAP1 PUSH1 0x20 ADD PUSH1 0x40 MLOAD DUP1 SWAP2 SUB SWAP1 LOG4 POP POP POP JUMP JUMPDEST PUSH8 0xFFFFFFFFFFFFFFFF DUP2 AND PUSH1 0x0 SWAP1 DUP2 MSTORE PUSH1 0x2 PUSH1 0x20 DUP2 DUP2 MSTORE PUSH1 0x40 DUP1 DUP5 KECCAK256 DUP2 MLOAD PUSH2 0x120 DUP2 ADD DUP4 MSTORE DUP2 SLOAD PUSH20 0xFFFFFFFFFFFFFFFFFFFFFFFFFFFFFFFFFFFFFFFF SWAP1 DUP2 AND DUP3 MSTORE PUSH1 0x1 DUP4 ADD SLOAD SWAP5 DUP3 ADD SWAP5 SWAP1 SWAP5 MSTORE SWAP4 DUP2 ADD SLOAD DUP4 AND SWAP2 DUP5 ADD SWAP2 SWAP1 SWAP2 MSTORE PUSH1 0x3 DUP2 ADD SLOAD PUSH16 0xFFFFFFFFFFFFFFFFFFFFFFFFFFFFFFFF DUP2 AND PUSH1 0x60 DUP6 ADD MSTORE PUSH4 0xFFFFFFFF PUSH17 0x100000000000000000000000000000000 DUP3 DIV AND PUSH1 0x80 DUP6 ADD MSTORE PUSH2 0xFFFF PUSH21 0x10000000000000000000000000000000000000000 DUP3 DIV AND PUSH1 0xA0 DUP6 ADD MSTORE PUSH1 0xFF PUSH23 0x100000000000000000000000000000000000000000000 DUP3 DIV DUP2 AND PUSH1 0xC0 DUP7 ADD MSTORE PUSH24 0x10000000000000000000000000000000000000000000000 SWAP1 SWAP2 DIV AND ISZERO ISZERO PUSH1 0xE0 DUP5 ADD MSTORE PUSH1 0x4 ADD SLOAD AND PUSH2 0x100 DUP3 ADD MSTORE PUSH2 0x5A6 SWAP1 PUSH2 0x18DD JUMP JUMPDEST PUSH20 0xFFFFFFFFFFFFFFFFFFFFFFFFFFFFFFFFFFFFFFFF DUP2 AND PUSH2 0xFAB JUMPI PUSH1 0x40 MLOAD PUSH32 0x5566DF5C00000000000000000000000000000000000000000000000000000000 DUP2 MSTORE PUSH1 0x4 ADD PUSH1 0x40 MLOAD DUP1 SWAP2 SUB SWAP1 REVERT JUMPDEST PUSH2 0x100 DUP3 PUSH1 0xFF AND LT PUSH2 0xFE9 JUMPI PUSH1 0x40 MLOAD PUSH32 0x748E67B200000000000000000000000000000000000000000000000000000000 DUP2 MSTORE PUSH1 0x4 ADD PUSH1 0x40 MLOAD DUP1 SWAP2 SUB SWAP1 REVERT JUMPDEST PUSH1 0x40 MLOAD PUSH32 0xF242432A00000000000000000000000000000000000000000000000000000000 DUP2 MSTORE CALLER PUSH1 0x4 DUP3 ADD MSTORE ADDRESS PUSH1 0x24 DUP3 ADD MSTORE PUSH1 0x44 DUP2 ADD DUP5 SWAP1 MSTORE PUSH1 0xFF DUP4 AND PUSH1 0x64 DUP3 ADD MSTORE PUSH1 0xA0 PUSH1 0x84 DUP3 ADD MSTORE PUSH1 0x0 PUSH1 0xA4 DUP3 ADD MSTORE PUSH20 0xFFFFFFFFFFFFFFFFFFFFFFFFFFFFFFFFFFFFFFFF DUP6 AND SWAP1 PUSH4 0xF242432A SWAP1 PUSH1 0xC4 ADD PUSH1 0x0 PUSH1 0x40 MLOAD DUP1 DUP4 SUB DUP2 PUSH1 0x0 DUP8 DUP1 EXTCODESIZE ISZERO DUP1 ISZERO PUSH2 0x1074 JUMPI PUSH1 0x0 DUP1 REVERT JUMPDEST POP GAS CALL ISZERO DUP1 ISZERO PUSH2 0x1088 JUMPI RETURNDATASIZE PUSH1 0x0 DUP1 RETURNDATACOPY RETURNDATASIZE PUSH1 0x0 REVERT JUMPDEST POP POP POP POP PUSH2 0x109C DUP5 DUP5 PUSH2 0x483 CALLER DUP7 DUP7 PUSH2 0x1584 JUMP JUMPDEST POP POP POP POP JUMP JUMPDEST PUSH2 0x10AA PUSH2 0x196F JUMP JUMPDEST PUSH8 0xFFFFFFFFFFFFFFFF DUP2 AND PUSH1 0x0 SWAP1 DUP2 MSTORE PUSH1 0x2 PUSH1 0x20 DUP2 DUP2 MSTORE PUSH1 0x40 SWAP3 DUP4 SWAP1 KECCAK256 DUP4 MLOAD PUSH2 0x120 DUP2 ADD DUP6 MSTORE DUP2 SLOAD PUSH20 0xFFFFFFFFFFFFFFFFFFFFFFFFFFFFFFFFFFFFFFFF SWAP1 DUP2 AND DUP3 MSTORE PUSH1 0x1 DUP4 ADD SLOAD SWAP4 DUP3 ADD SWAP4 SWAP1 SWAP4 MSTORE SWAP3 DUP2 ADD SLOAD DUP3 AND SWAP4 DUP4 ADD SWAP4 SWAP1 SWAP4 MSTORE PUSH1 0x3 DUP4 ADD SLOAD PUSH16 0xFFFFFFFFFFFFFFFFFFFFFFFFFFFFFFFF DUP2 AND PUSH1 0x60 DUP5 ADD MSTORE PUSH4 0xFFFFFFFF PUSH17 0x100000000000000000000000000000000 DUP3 DIV AND PUSH1 0x80 DUP5 ADD MSTORE PUSH2 0xFFFF PUSH21 0x10000000000000000000000000000000000000000 DUP3 DIV AND PUSH1 0xA0 DUP5 ADD MSTORE PUSH1 0xFF PUSH23 0x100000000000000000000000000000000000000000000 DUP3 DIV DUP2 AND PUSH1 0xC0 DUP6 ADD MSTORE PUSH24 0x10000000000000000000000000000000000000000000000 SWAP1 SWAP2 DIV AND ISZERO ISZERO PUSH1 0xE0 DUP4 ADD MSTORE PUSH1 0x4 DUP4 ADD SLOAD AND PUSH2 0x100 DUP3 ADD MSTORE CALLVALUE SWAP1 CALLER SWAP1 PUSH2 0x11C2 SWAP1 PUSH2 0x18DD JUMP JUMPDEST DUP3 LT ISZERO PUSH2 0x11FB JUMPI PUSH1 0x40 MLOAD PUSH32 0x4285416300000000000000000000000000000000000000000000000000000000 DUP2 MSTORE PUSH1 0x4 ADD PUSH1 0x40 MLOAD DUP1 SWAP2 SUB SWAP1 REVERT JUMPDEST PUSH1 0x3 DUP4 ADD SLOAD PUSH17 0x100000000000000000000000000000000 SWAP1 DIV PUSH4 0xFFFFFFFF AND TIMESTAMP GT ISZERO PUSH2 0x1253 JUMPI PUSH1 0x40 MLOAD PUSH32 0x69B8D0FE00000000000000000000000000000000000000000000000000000000 DUP2 MSTORE PUSH1 0x4 ADD PUSH1 0x40 MLOAD DUP1 SWAP2 SUB SWAP1 REVERT JUMPDEST PUSH1 0x40 DUP1 MLOAD PUSH2 0x120 DUP2 ADD DUP3 MSTORE DUP5 SLOAD PUSH20 0xFFFFFFFFFFFFFFFFFFFFFFFFFFFFFFFFFFFFFFFF SWAP1 DUP2 AND DUP3 MSTORE PUSH1 0x1 DUP7 ADD SLOAD PUSH1 0x20 DUP4 ADD MSTORE PUSH1 0x2 DUP7 ADD SLOAD DUP2 AND SWAP3 DUP3 ADD SWAP3 SWAP1 SWAP3 MSTORE PUSH1 0x3 DUP6 ADD SLOAD PUSH16 0xFFFFFFFFFFFFFFFFFFFFFFFFFFFFFFFF DUP2 AND PUSH1 0x60 DUP4 ADD DUP2 SWAP1 MSTORE PUSH4 0xFFFFFFFF PUSH17 0x100000000000000000000000000000000 DUP4 DIV AND PUSH1 0x80 DUP5 ADD MSTORE PUSH2 0xFFFF PUSH21 0x10000000000000000000000000000000000000000 DUP4 DIV AND PUSH1 0xA0 DUP5 ADD MSTORE PUSH1 0xFF PUSH23 0x100000000000000000000000000000000000000000000 DUP4 DIV DUP2 AND PUSH1 0xC0 DUP6 ADD MSTORE PUSH24 0x10000000000000000000000000000000000000000000000 SWAP1 SWAP3 DIV SWAP1 SWAP2 AND ISZERO ISZERO PUSH1 0xE0 DUP4 ADD MSTORE PUSH1 0x4 DUP7 ADD SLOAD SWAP1 SWAP3 AND PUSH2 0x100 SWAP1 SWAP2 ADD MSTORE ISZERO PUSH2 0x142A JUMPI PUSH1 0x2 DUP4 ADD SLOAD PUSH1 0x3 DUP5 ADD SLOAD PUSH1 0x40 MLOAD PUSH1 0x0 SWAP3 PUSH20 0xFFFFFFFFFFFFFFFFFFFFFFFFFFFFFFFFFFFFFFFF AND SWAP2 PUSH16 0xFFFFFFFFFFFFFFFFFFFFFFFFFFFFFFFF AND SWAP1 DUP4 DUP2 DUP2 DUP2 DUP6 DUP8 GAS CALL SWAP3 POP POP POP RETURNDATASIZE DUP1 PUSH1 0x0 DUP2 EQ PUSH2 0x13C0 JUMPI PUSH1 0x40 MLOAD SWAP2 POP PUSH1 0x1F NOT PUSH1 0x3F RETURNDATASIZE ADD AND DUP3 ADD PUSH1 0x40 MSTORE RETURNDATASIZE DUP3 MSTORE RETURNDATASIZE PUSH1 0x0 PUSH1 0x20 DUP5 ADD RETURNDATACOPY PUSH2 0x13C5 JUMP JUMPDEST PUSH1 0x60 SWAP2 POP JUMPDEST POP POP SWAP1 POP DUP1 PUSH2 0x1428 JUMPI PUSH1 0x3 DUP1 DUP6 ADD SLOAD PUSH1 0x2 DUP7 ADD SLOAD PUSH20 0xFFFFFFFFFFFFFFFFFFFFFFFFFFFFFFFFFFFFFFFF AND PUSH1 0x0 SWAP1 DUP2 MSTORE PUSH1 0x20 SWAP3 SWAP1 SWAP3 MSTORE PUSH1 0x40 DUP3 KECCAK256 DUP1 SLOAD PUSH16 0xFFFFFFFFFFFFFFFFFFFFFFFFFFFFFFFF SWAP1 SWAP3 AND SWAP3 SWAP1 SWAP2 PUSH2 0x1422 SWAP1 DUP5 SWAP1 PUSH2 0x1F33 JUMP JUMPDEST SWAP1 SWAP2 SSTORE POP POP JUMPDEST POP JUMPDEST PUSH2 0x1434 DUP5 DUP5 PUSH2 0x19B2 JUMP JUMPDEST PUSH1 0x3 DUP4 ADD DUP1 SLOAD PUSH32 0xFFFFFFFFFFFFFFFFFFFFFFFFFFFFFFFF00000000000000000000000000000000 AND PUSH16 0xFFFFFFFFFFFFFFFFFFFFFFFFFFFFFFFF DUP5 AND OR SWAP1 SSTORE PUSH1 0x2 DUP4 ADD DUP1 SLOAD PUSH32 0xFFFFFFFFFFFFFFFFFFFFFFFF0000000000000000000000000000000000000000 AND PUSH20 0xFFFFFFFFFFFFFFFFFFFFFFFFFFFFFFFFFFFFFFFF DUP4 AND SWAP1 DUP2 OR SWAP1 SWAP2 SSTORE PUSH1 0x40 MLOAD DUP4 SWAP1 PUSH8 0xFFFFFFFFFFFFFFFF DUP8 AND SWAP1 PUSH32 0x6016E6B08F3206C629768E91BAB941B1BF67A18FE2AE927AD0C7C8CBCB7C56BB SWAP1 PUSH1 0x0 SWAP1 LOG4 POP POP POP PUSH2 0x14FB PUSH1 0x1 PUSH1 0x0 SSTORE JUMP JUMPDEST POP JUMP JUMPDEST PUSH1 0x0 PUSH2 0x100 DUP4 LT PUSH2 0x153B JUMPI PUSH1 0x40 MLOAD PUSH32 0x748E67B200000000000000000000000000000000000000000000000000000000 DUP2 MSTORE PUSH1 0x4 ADD PUSH1 0x40 MLOAD DUP1 SWAP2 SUB SWAP1 REVERT JUMPDEST PUSH1 0x0 PUSH2 0x1546 DUP4 PUSH2 0x18A2 JUMP JUMPDEST SWAP1 POP PUSH2 0x1558 CALLER DUP7 PUSH2 0x483 DUP10 DUP9 DUP7 PUSH2 0x1584 JUMP JUMPDEST POP PUSH32 0xF23A6E6100000000000000000000000000000000000000000000000000000000 SWAP7 SWAP6 POP POP POP POP POP POP JUMP JUMPDEST PUSH1 0x40 MLOAD DUP1 PUSH2 0x120 ADD PUSH1 0x40 MSTORE DUP1 DUP8 PUSH20 0xFFFFFFFFFFFFFFFFFFFFFFFFFFFFFFFFFFFFFFFF AND DUP2 MSTORE PUSH1 0x20 ADD DUP7 DUP2 MSTORE PUSH1 0x20 ADD DUP5 PUSH20 0xFFFFFFFFFFFFFFFFFFFFFFFFFFFFFFFFFFFFFFFF AND DUP2 MSTORE PUSH1 0x20 ADD PUSH1 0x0 PUSH16 0xFFFFFFFFFFFFFFFFFFFFFFFFFFFFFFFF AND DUP2 MSTORE PUSH1 0x20 ADD TIMESTAMP PUSH3 0x15180 PUSH2 0x15F6 SWAP2 SWAP1 PUSH2 0x1F33 JUMP JUMPDEST PUSH4 0xFFFFFFFF SWAP1 DUP2 AND DUP3 MSTORE PUSH2 0xFFFF DUP1 DUP9 AND PUSH1 0x20 DUP1 DUP6 ADD SWAP2 SWAP1 SWAP2 MSTORE PUSH1 0xFF DUP1 DUP9 AND PUSH1 0x40 DUP1 DUP8 ADD SWAP2 SWAP1 SWAP2 MSTORE PUSH1 0x0 PUSH1 0x60 DUP1 DUP9 ADD DUP3 SWAP1 MSTORE PUSH20 0xFFFFFFFFFFFFFFFFFFFFFFFFFFFFFFFFFFFFFFFF DUP1 DUP12 AND PUSH1 0x80 SWAP10 DUP11 ADD MSTORE PUSH1 0x1 DUP1 SLOAD PUSH8 0xFFFFFFFFFFFFFFFF SWAP1 DUP2 AND DUP6 MSTORE PUSH1 0x2 DUP1 DUP10 MSTORE SWAP5 DUP7 SWAP1 KECCAK256 DUP13 MLOAD DUP2 SLOAD SWAP1 DUP6 AND PUSH32 0xFFFFFFFFFFFFFFFFFFFFFFFF0000000000000000000000000000000000000000 SWAP2 DUP3 AND OR DUP3 SSTORE SWAP9 DUP14 ADD MLOAD DUP2 DUP5 ADD SSTORE SWAP6 DUP13 ADD MLOAD SWAP5 DUP7 ADD DUP1 SLOAD SWAP6 DUP5 AND SWAP6 DUP10 AND SWAP6 SWAP1 SWAP6 OR SWAP1 SWAP5 SSTORE SWAP2 DUP11 ADD MLOAD PUSH1 0x3 DUP6 ADD DUP1 SLOAD SWAP11 DUP13 ADD MLOAD PUSH1 0xA0 DUP14 ADD MLOAD PUSH1 0xC0 DUP15 ADD MLOAD PUSH1 0xE0 DUP16 ADD MLOAD ISZERO ISZERO PUSH24 0x10000000000000000000000000000000000000000000000 MUL PUSH32 0xFFFFFFFFFFFFFFFF00FFFFFFFFFFFFFFFFFFFFFFFFFFFFFFFFFFFFFFFFFFFFFF SWAP2 SWAP1 SWAP11 AND PUSH23 0x100000000000000000000000000000000000000000000 MUL PUSH32 0xFFFFFFFFFFFFFFFFFF00FFFFFFFFFFFFFFFFFFFFFFFFFFFFFFFFFFFFFFFFFFFF SWAP3 SWAP1 SWAP13 AND PUSH21 0x10000000000000000000000000000000000000000 MUL SWAP2 SWAP1 SWAP2 AND PUSH32 0xFFFFFFFFFFFFFFFFFF000000FFFFFFFFFFFFFFFFFFFFFFFFFFFFFFFFFFFFFFFF SWAP3 SWAP1 SWAP13 AND PUSH17 0x100000000000000000000000000000000 MUL SWAP13 DUP11 AND PUSH16 0xFFFFFFFFFFFFFFFFFFFFFFFFFFFFFFFF SWAP1 SWAP5 AND SWAP4 SWAP1 SWAP4 OR SWAP12 SWAP1 SWAP12 OR SWAP11 SWAP1 SWAP11 AND SWAP9 SWAP1 SWAP9 OR SWAP7 SWAP1 SWAP7 OR SWAP7 SWAP1 SWAP7 AND SWAP3 SWAP1 SWAP3 OR SWAP1 SWAP6 SSTORE PUSH2 0x100 SWAP6 SWAP1 SWAP6 ADD MLOAD PUSH1 0x4 SWAP1 SWAP5 ADD DUP1 SLOAD SWAP5 DUP4 AND SWAP5 SWAP1 SWAP2 AND SWAP4 SWAP1 SWAP4 OR SWAP1 SWAP3 SSTORE SLOAD DUP8 SWAP3 SWAP2 DUP10 AND SWAP2 AND PUSH32 0x2BA1527D484FFF3B252D1EB5E2B408313B8B6524BF81F26D90CDBA87E7F92637 DUP5 PUSH2 0x1825 TIMESTAMP PUSH3 0x15180 PUSH2 0x1F33 JUMP JUMPDEST PUSH1 0x40 DUP1 MLOAD PUSH20 0xFFFFFFFFFFFFFFFFFFFFFFFFFFFFFFFFFFFFFFFF SWAP1 SWAP4 AND DUP4 MSTORE PUSH4 0xFFFFFFFF SWAP1 SWAP2 AND PUSH1 0x20 DUP4 ADD MSTORE ADD PUSH1 0x40 MLOAD DUP1 SWAP2 SUB SWAP1 LOG4 PUSH1 0x1 DUP1 SLOAD PUSH8 0xFFFFFFFFFFFFFFFF AND SWAP1 PUSH1 0x0 PUSH2 0x1873 DUP4 PUSH2 0x1F46 JUMP JUMPDEST SWAP2 SWAP1 PUSH2 0x100 EXP DUP2 SLOAD DUP2 PUSH8 0xFFFFFFFFFFFFFFFF MUL NOT AND SWAP1 DUP4 PUSH8 0xFFFFFFFFFFFFFFFF AND MUL OR SWAP1 SSTORE POP POP POP POP POP POP POP POP JUMP JUMPDEST PUSH1 0x0 DUP2 DUP1 PUSH1 0x20 ADD SWAP1 MLOAD DUP2 ADD SWAP1 PUSH2 0x18B8 SWAP2 SWAP1 PUSH2 0x1F6D JUMP JUMPDEST SWAP1 POP PUSH20 0xFFFFFFFFFFFFFFFFFFFFFFFFFFFFFFFFFFFFFFFF DUP2 AND PUSH2 0x18D8 JUMPI POP CALLER JUMPDEST SWAP2 SWAP1 POP JUMP JUMPDEST PUSH1 0x0 PUSH2 0x18FE DUP3 PUSH1 0x60 ADD MLOAD PUSH16 0xFFFFFFFFFFFFFFFFFFFFFFFFFFFFFFFF AND ISZERO ISZERO SWAP1 JUMP JUMPDEST PUSH2 0x190A JUMPI PUSH2 0x5A6 PUSH2 0x1A95 JUMP JUMPDEST PUSH1 0x0 PUSH1 0x64 PUSH2 0x1919 PUSH1 0xA DUP3 PUSH2 0x1F8A JUMP JUMPDEST PUSH4 0xFFFFFFFF AND DUP5 PUSH1 0x60 ADD MLOAD PUSH16 0xFFFFFFFFFFFFFFFFFFFFFFFFFFFFFFFF AND PUSH2 0x1940 SWAP2 SWAP1 PUSH2 0x1FAE JUMP JUMPDEST PUSH2 0x194A SWAP2 SWAP1 PUSH2 0x1FC5 JUMP JUMPDEST SWAP1 POP PUSH1 0x0 PUSH2 0x1956 PUSH2 0x1A95 JUMP JUMPDEST SWAP1 POP DUP1 DUP3 LT PUSH2 0x1965 JUMPI DUP2 PUSH2 0x1967 JUMP JUMPDEST DUP1 JUMPDEST SWAP5 SWAP4 POP POP POP POP JUMP JUMPDEST PUSH1 0x2 PUSH1 0x0 SLOAD SUB PUSH2 0x19AB JUMPI PUSH1 0x40 MLOAD PUSH32 0x3EE5AEB500000000000000000000000000000000000000000000000000000000 DUP2 MSTORE PUSH1 0x4 ADD PUSH1 0x40 MLOAD DUP1 SWAP2 SUB SWAP1 REVERT JUMPDEST PUSH1 0x2 PUSH1 0x0 SSTORE JUMP JUMPDEST PUSH1 0x3 DUP2 ADD SLOAD PUSH1 0x0 SWAP1 PUSH2 0x19E1 SWAP1 PUSH2 0x12C SWAP1 PUSH17 0x100000000000000000000000000000000 SWAP1 DIV PUSH4 0xFFFFFFFF AND PUSH2 0x2000 JUMP JUMPDEST PUSH4 0xFFFFFFFF AND SWAP1 POP TIMESTAMP PUSH8 0xFFFFFFFFFFFFFFFF DUP2 AND DUP3 LT ISZERO PUSH2 0x109C JUMPI PUSH2 0x1A08 PUSH2 0x12C DUP3 PUSH2 0x201D JUMP JUMPDEST PUSH1 0x3 DUP5 ADD DUP1 SLOAD PUSH32 0xFFFFFFFFFFFFFFFFFFFFFFFF00000000FFFFFFFFFFFFFFFFFFFFFFFFFFFFFFFF AND PUSH17 0x100000000000000000000000000000000 PUSH4 0xFFFFFFFF SWAP4 DUP5 AND DUP2 MUL SWAP2 SWAP1 SWAP2 OR SWAP2 DUP3 SWAP1 SSTORE PUSH1 0x40 MLOAD SWAP2 DIV SWAP1 SWAP2 AND SWAP1 PUSH8 0xFFFFFFFFFFFFFFFF DUP7 AND SWAP1 PUSH32 0xB4A60EBC2CF1C50677776BB7F2AEA10CAA932A042D60D2AC4697EF6D9CB8AFB0 SWAP1 PUSH1 0x0 SWAP1 LOG3 POP POP POP POP JUMP JUMPDEST PUSH1 0x0 PUSH2 0x1AA3 BASEFEE PUSH2 0xEA60 PUSH2 0x1FAE JUMP JUMPDEST SWAP1 POP SWAP1 JUMP JUMPDEST PUSH1 0x0 PUSH1 0x20 DUP3 DUP5 SUB SLT ISZERO PUSH2 0x1ABA JUMPI PUSH1 0x0 DUP1 REVERT JUMPDEST DUP2 CALLDATALOAD PUSH32 0xFFFFFFFF00000000000000000000000000000000000000000000000000000000 DUP2 AND DUP2 EQ PUSH2 0x1AEA JUMPI PUSH1 0x0 DUP1 REVERT JUMPDEST SWAP4 SWAP3 POP POP POP JUMP JUMPDEST PUSH20 0xFFFFFFFFFFFFFFFFFFFFFFFFFFFFFFFFFFFFFFFF DUP2 AND DUP2 EQ PUSH2 0x14FB JUMPI PUSH1 0x0 DUP1 REVERT JUMPDEST PUSH1 0x0 DUP1 PUSH1 0x0 PUSH1 0x60 DUP5 DUP7 SUB SLT ISZERO PUSH2 0x1B28 JUMPI PUSH1 0x0 DUP1 REVERT JUMPDEST DUP4 CALLDATALOAD PUSH2 0x1B33 DUP2 PUSH2 0x1AF1 JUMP JUMPDEST SWAP3 POP PUSH1 0x20 DUP5 ADD CALLDATALOAD SWAP2 POP PUSH1 0x40 DUP5 ADD CALLDATALOAD PUSH2 0x1B4A DUP2 PUSH2 0x1AF1 JUMP JUMPDEST DUP1 SWAP2 POP POP SWAP3 POP SWAP3 POP SWAP3 JUMP JUMPDEST PUSH32 0x4E487B7100000000000000000000000000000000000000000000000000000000 PUSH1 0x0 MSTORE PUSH1 0x41 PUSH1 0x4 MSTORE PUSH1 0x24 PUSH1 0x0 REVERT JUMPDEST PUSH1 0x40 MLOAD PUSH1 0x1F DUP3 ADD PUSH32 0xFFFFFFFFFFFFFFFFFFFFFFFFFFFFFFFFFFFFFFFFFFFFFFFFFFFFFFFFFFFFFFE0 AND DUP2 ADD PUSH8 0xFFFFFFFFFFFFFFFF DUP2 GT DUP3 DUP3 LT OR ISZERO PUSH2 0x1BCB JUMPI PUSH2 0x1BCB PUSH2 0x1B55 JUMP JUMPDEST PUSH1 0x40 MSTORE SWAP2 SWAP1 POP JUMP JUMPDEST PUSH1 0x0 DUP3 PUSH1 0x1F DUP4 ADD SLT PUSH2 0x1BE4 JUMPI PUSH1 0x0 DUP1 REVERT JUMPDEST DUP2 CALLDATALOAD PUSH8 0xFFFFFFFFFFFFFFFF DUP2 GT ISZERO PUSH2 0x1BFE JUMPI PUSH2 0x1BFE PUSH2 0x1B55 JUMP JUMPDEST PUSH2 0x1C2F PUSH1 0x20 PUSH32 0xFFFFFFFFFFFFFFFFFFFFFFFFFFFFFFFFFFFFFFFFFFFFFFFFFFFFFFFFFFFFFFE0 PUSH1 0x1F DUP5 ADD AND ADD PUSH2 0x1B84 JUMP JUMPDEST DUP2 DUP2 MSTORE DUP5 PUSH1 0x20 DUP4 DUP7 ADD ADD GT ISZERO PUSH2 0x1C44 JUMPI PUSH1 0x0 DUP1 REVERT JUMPDEST DUP2 PUSH1 0x20 DUP6 ADD PUSH1 0x20 DUP4 ADD CALLDATACOPY PUSH1 0x0 SWAP2 DUP2 ADD PUSH1 0x20 ADD SWAP2 SWAP1 SWAP2 MSTORE SWAP4 SWAP3 POP POP POP JUMP JUMPDEST PUSH1 0x0 DUP1 PUSH1 0x0 DUP1 PUSH1 0x80 DUP6 DUP8 SUB SLT ISZERO PUSH2 0x1C77 JUMPI PUSH1 0x0 DUP1 REVERT JUMPDEST DUP5 CALLDATALOAD PUSH2 0x1C82 DUP2 PUSH2 0x1AF1 JUMP JUMPDEST SWAP4 POP PUSH1 0x20 DUP6 ADD CALLDATALOAD PUSH2 0x1C92 DUP2 PUSH2 0x1AF1 JUMP JUMPDEST SWAP3 POP PUSH1 0x40 DUP6 ADD CALLDATALOAD SWAP2 POP PUSH1 0x60 DUP6 ADD CALLDATALOAD PUSH8 0xFFFFFFFFFFFFFFFF DUP2 GT ISZERO PUSH2 0x1CB5 JUMPI PUSH1 0x0 DUP1 REVERT JUMPDEST PUSH2 0x1CC1 DUP8 DUP3 DUP9 ADD PUSH2 0x1BD3 JUMP JUMPDEST SWAP2 POP POP SWAP3 SWAP6 SWAP2 SWAP5 POP SWAP3 POP JUMP JUMPDEST PUSH1 0x0 PUSH1 0x20 DUP3 DUP5 SUB SLT ISZERO PUSH2 0x1CDF JUMPI PUSH1 0x0 DUP1 REVERT JUMPDEST DUP2 CALLDATALOAD PUSH8 0xFFFFFFFFFFFFFFFF DUP2 AND DUP2 EQ PUSH2 0x1AEA JUMPI PUSH1 0x0 DUP1 REVERT JUMPDEST PUSH1 0x0 DUP1 PUSH1 0x0 DUP1 PUSH1 0x80 DUP6 DUP8 SUB SLT ISZERO PUSH2 0x1D0D JUMPI PUSH1 0x0 DUP1 REVERT JUMPDEST DUP5 CALLDATALOAD PUSH2 0x1D18 DUP2 PUSH2 0x1AF1 JUMP JUMPDEST SWAP4 POP PUSH1 0x20 DUP6 ADD CALLDATALOAD SWAP3 POP PUSH1 0x40 DUP6 ADD CALLDATALOAD PUSH1 0xFF DUP2 AND DUP2 EQ PUSH2 0x1D35 JUMPI PUSH1 0x0 DUP1 REVERT JUMPDEST SWAP2 POP PUSH1 0x60 DUP6 ADD CALLDATALOAD PUSH2 0x1D45 DUP2 PUSH2 0x1AF1 JUMP JUMPDEST SWAP4 SWAP7 SWAP3 SWAP6 POP SWAP1 SWAP4 POP POP JUMP JUMPDEST PUSH1 0x0 DUP3 PUSH1 0x1F DUP4 ADD SLT PUSH2 0x1D61 JUMPI PUSH1 0x0 DUP1 REVERT JUMPDEST DUP2 CALLDATALOAD PUSH1 0x20 PUSH8 0xFFFFFFFFFFFFFFFF DUP3 GT ISZERO PUSH2 0x1D7D JUMPI PUSH2 0x1D7D PUSH2 0x1B55 JUMP JUMPDEST DUP2 PUSH1 0x5 SHL PUSH2 0x1D8C DUP3 DUP3 ADD PUSH2 0x1B84 JUMP JUMPDEST SWAP3 DUP4 MSTORE DUP5 DUP2 ADD DUP3 ADD SWAP3 DUP3 DUP2 ADD SWAP1 DUP8 DUP6 GT ISZERO PUSH2 0x1DA6 JUMPI PUSH1 0x0 DUP1 REVERT JUMPDEST DUP4 DUP8 ADD SWAP3 POP JUMPDEST DUP5 DUP4 LT ISZERO PUSH2 0x1DC5 JUMPI DUP3 CALLDATALOAD DUP3 MSTORE SWAP2 DUP4 ADD SWAP2 SWAP1 DUP4 ADD SWAP1 PUSH2 0x1DAC JUMP JUMPDEST SWAP8 SWAP7 POP POP POP POP POP POP POP JUMP JUMPDEST PUSH1 0x0 DUP1 PUSH1 0x0 DUP1 PUSH1 0x0 PUSH1 0xA0 DUP7 DUP9 SUB SLT ISZERO PUSH2 0x1DE8 JUMPI PUSH1 0x0 DUP1 REVERT JUMPDEST DUP6 CALLDATALOAD PUSH2 0x1DF3 DUP2 PUSH2 0x1AF1 JUMP JUMPDEST SWAP5 POP PUSH1 0x20 DUP7 ADD CALLDATALOAD PUSH2 0x1E03 DUP2 PUSH2 0x1AF1 JUMP JUMPDEST SWAP4 POP PUSH1 0x40 DUP7 ADD CALLDATALOAD PUSH8 0xFFFFFFFFFFFFFFFF DUP1 DUP3 GT ISZERO PUSH2 0x1E20 JUMPI PUSH1 0x0 DUP1 REVERT JUMPDEST PUSH2 0x1E2C DUP10 DUP4 DUP11 ADD PUSH2 0x1D50 JUMP JUMPDEST SWAP5 POP PUSH1 0x60 DUP9 ADD CALLDATALOAD SWAP2 POP DUP1 DUP3 GT ISZERO PUSH2 0x1E42 JUMPI PUSH1 0x0 DUP1 REVERT JUMPDEST PUSH2 0x1E4E DUP10 DUP4 DUP11 ADD PUSH2 0x1D50 JUMP JUMPDEST SWAP4 POP PUSH1 0x80 DUP9 ADD CALLDATALOAD SWAP2 POP DUP1 DUP3 GT ISZERO PUSH2 0x1E64 JUMPI PUSH1 0x0 DUP1 REVERT JUMPDEST POP PUSH2 0x1E71 DUP9 DUP3 DUP10 ADD PUSH2 0x1BD3 JUMP JUMPDEST SWAP2 POP POP SWAP3 SWAP6 POP SWAP3 SWAP6 SWAP1 SWAP4 POP JUMP JUMPDEST PUSH1 0x0 DUP1 PUSH1 0x0 DUP1 PUSH1 0x0 PUSH1 0xA0 DUP7 DUP9 SUB SLT ISZERO PUSH2 0x1E96 JUMPI PUSH1 0x0 DUP1 REVERT JUMPDEST DUP6 CALLDATALOAD PUSH2 0x1EA1 DUP2 PUSH2 0x1AF1 JUMP JUMPDEST SWAP5 POP PUSH1 0x20 DUP7 ADD CALLDATALOAD PUSH2 0x1EB1 DUP2 PUSH2 0x1AF1 JUMP JUMPDEST SWAP4 POP PUSH1 0x40 DUP7 ADD CALLDATALOAD SWAP3 POP PUSH1 0x60 DUP7 ADD CALLDATALOAD SWAP2 POP PUSH1 0x80 DUP7 ADD CALLDATALOAD PUSH8 0xFFFFFFFFFFFFFFFF DUP2 GT ISZERO PUSH2 0x1EDB JUMPI PUSH1 0x0 DUP1 REVERT JUMPDEST PUSH2 0x1E71 DUP9 DUP3 DUP10 ADD PUSH2 0x1BD3 JUMP JUMPDEST PUSH1 0x0 PUSH1 0x20 DUP3 DUP5 SUB SLT ISZERO PUSH2 0x1EF9 JUMPI PUSH1 0x0 DUP1 REVERT JUMPDEST DUP2 CALLDATALOAD PUSH2 0x1AEA DUP2 PUSH2 0x1AF1 JUMP JUMPDEST PUSH32 0x4E487B7100000000000000000000000000000000000000000000000000000000 PUSH1 0x0 MSTORE PUSH1 0x11 PUSH1 0x4 MSTORE PUSH1 0x24 PUSH1 0x0 REVERT JUMPDEST DUP1 DUP3 ADD DUP1 DUP3 GT ISZERO PUSH2 0x5A6 JUMPI PUSH2 0x5A6 PUSH2 0x1F04 JUMP JUMPDEST PUSH1 0x0 PUSH8 0xFFFFFFFFFFFFFFFF DUP1 DUP4 AND DUP2 DUP2 SUB PUSH2 0x1F63 JUMPI PUSH2 0x1F63 PUSH2 0x1F04 JUMP JUMPDEST PUSH1 0x1 ADD SWAP4 SWAP3 POP POP POP JUMP JUMPDEST PUSH1 0x0 PUSH1 0x20 DUP3 DUP5 SUB SLT ISZERO PUSH2 0x1F7F JUMPI PUSH1 0x0 DUP1 REVERT JUMPDEST DUP2 MLOAD PUSH2 0x1AEA DUP2 PUSH2 0x1AF1 JUMP JUMPDEST PUSH4 0xFFFFFFFF DUP2 DUP2 AND DUP4 DUP3 AND ADD SWAP1 DUP1 DUP3 GT ISZERO PUSH2 0x1FA7 JUMPI PUSH2 0x1FA7 PUSH2 0x1F04 JUMP JUMPDEST POP SWAP3 SWAP2 POP POP JUMP JUMPDEST DUP1 DUP3 MUL DUP2 ISZERO DUP3 DUP3 DIV DUP5 EQ OR PUSH2 0x5A6 JUMPI PUSH2 0x5A6 PUSH2 0x1F04 JUMP JUMPDEST PUSH1 0x0 DUP3 PUSH2 0x1FFB JUMPI PUSH32 0x4E487B7100000000000000000000000000000000000000000000000000000000 PUSH1 0x0 MSTORE PUSH1 0x12 PUSH1 0x4 MSTORE PUSH1 0x24 PUSH1 0x0 REVERT JUMPDEST POP DIV SWAP1 JUMP JUMPDEST PUSH4 0xFFFFFFFF DUP3 DUP2 AND DUP3 DUP3 AND SUB SWAP1 DUP1 DUP3 GT ISZERO PUSH2 0x1FA7 JUMPI PUSH2 0x1FA7 PUSH2 0x1F04 JUMP JUMPDEST PUSH8 0xFFFFFFFFFFFFFFFF DUP2 DUP2 AND DUP4 DUP3 AND ADD SWAP1 DUP1 DUP3 GT ISZERO PUSH2 0x1FA7 JUMPI PUSH2 0x1FA7 PUSH2 0x1F04 JUMP INVALID LOG2 PUSH5 0x6970667358 0x22 SLT KECCAK256 0x23 0xD6 PUSH13 0x2C2F87845C3176BD16DC1739A4 0x2B PUSH22 0xE877ABD5CFDCEECDFC46F2160BA564736F6C63430008 XOR STOP CALLER "},"methodIdentifiers":{"BIDDING_GRACE_PERIOD()":"e75429e1","BID_PERCENTAGE_INCREASE()":"74c02598","bid(uint64)":"c261d456","createERC1155Auction(address,uint256,uint8,address)":"838041b0","createERC721Auction(address,uint256,address)":"0ef21e2f","currentBidPrice(uint64)":"5e2b502b","getAuction(uint64)":"bc12e3d7","getBalance(address)":"f8b2cb4f","nextAuctionId()":"fc528482","onERC1155BatchReceived(address,address,uint256[],uint256[],bytes)":"bc197c81","onERC1155Received(address,address,uint256,uint256,bytes)":"f23a6e61","onERC721Received(address,address,uint256,bytes)":"150b7a02","settle(uint64)":"4b9ba446","supportsInterface(bytes4)":"01ffc9a7","withdraw()":"3ccfd60b"}}}}}