{
  "contracts/Auctions.sol": {
    "Auctions": {
      "abi": [
        {
          "inputs": [],
          "name": "AuctionAlreadySettled",
          "type": "error"
        },
        {
          "inputs": [],
          "name": "AuctionDoesNotExist",
          "type": "error"
        },
        {
          "inputs": [],
          "name": "AuctionNotActive",
          "type": "error"
        },
        {
          "inputs": [],
          "name": "AuctionNotComplete",
          "type": "error"
        },
        {
          "inputs": [],
          "name": "FailedWithdrawal",
          "type": "error"
        },
        {
          "inputs": [],
          "name": "MinimumBidNotMet",
          "type": "error"
        },
        {
          "inputs": [],
          "name": "NoBalanceToWithdraw",
          "type": "error"
        },
        {
          "inputs": [],
          "name": "TooManyTokens",
          "type": "error"
        },
        {
          "anonymous": false,
          "inputs": [
            {
              "indexed": true,
              "internalType": "uint256",
              "name": "auctionId",
              "type": "uint256"
            },
            {
              "indexed": true,
              "internalType": "uint256",
              "name": "endTimestamp",
              "type": "uint256"
            }
          ],
          "name": "AuctionExtended",
          "type": "event"
        },
        {
          "anonymous": false,
          "inputs": [
            {
              "indexed": true,
              "internalType": "uint256",
              "name": "auctionId",
              "type": "uint256"
            },
            {
              "indexed": true,
              "internalType": "address",
              "name": "tokenContract",
              "type": "address"
            },
            {
              "indexed": true,
              "internalType": "uint256",
              "name": "tokenId",
              "type": "uint256"
            },
            {
              "indexed": false,
              "internalType": "uint16",
              "name": "tokenERCStandard",
              "type": "uint16"
            },
            {
              "indexed": false,
              "internalType": "uint40",
              "name": "endTimestamp",
              "type": "uint40"
            },
            {
              "indexed": false,
              "internalType": "address",
              "name": "beneficiary",
              "type": "address"
            }
          ],
          "name": "AuctionInitialised",
          "type": "event"
        },
        {
          "anonymous": false,
          "inputs": [
            {
              "indexed": true,
              "internalType": "uint256",
              "name": "auctionId",
              "type": "uint256"
            },
            {
              "indexed": true,
              "internalType": "address",
              "name": "winner",
              "type": "address"
            },
            {
              "indexed": true,
              "internalType": "address",
              "name": "beneficiary",
              "type": "address"
            },
            {
              "indexed": false,
              "internalType": "uint256",
              "name": "amount",
              "type": "uint256"
            }
          ],
          "name": "AuctionSettled",
          "type": "event"
        },
        {
          "anonymous": false,
          "inputs": [
            {
              "indexed": true,
              "internalType": "uint256",
              "name": "auctionId",
              "type": "uint256"
            },
            {
              "indexed": true,
              "internalType": "uint256",
              "name": "bid",
              "type": "uint256"
            },
            {
              "indexed": true,
              "internalType": "address",
              "name": "from",
              "type": "address"
            }
          ],
          "name": "Bid",
          "type": "event"
        },
        {
          "inputs": [],
          "name": "AUCTION_DURATION",
          "outputs": [
            {
              "internalType": "uint40",
              "name": "",
              "type": "uint40"
            }
          ],
          "stateMutability": "view",
          "type": "function"
        },
        {
          "inputs": [],
          "name": "BIDDING_GRACE_PERIOD",
          "outputs": [
            {
              "internalType": "uint40",
              "name": "",
              "type": "uint40"
            }
          ],
          "stateMutability": "view",
          "type": "function"
        },
        {
          "inputs": [],
          "name": "BID_PERCENTAGE_INCREASE",
          "outputs": [
            {
              "internalType": "uint256",
              "name": "",
              "type": "uint256"
            }
          ],
          "stateMutability": "view",
          "type": "function"
        },
        {
          "inputs": [],
          "name": "MAX_BID_INCREASE",
          "outputs": [
            {
              "internalType": "uint256",
              "name": "",
              "type": "uint256"
            }
          ],
          "stateMutability": "view",
          "type": "function"
        },
        {
          "inputs": [],
          "name": "auctionId",
          "outputs": [
            {
              "internalType": "uint256",
              "name": "",
              "type": "uint256"
            }
          ],
          "stateMutability": "view",
          "type": "function"
        },
        {
          "inputs": [
            {
              "internalType": "uint256",
              "name": "",
              "type": "uint256"
            }
          ],
          "name": "auctions",
          "outputs": [
            {
              "internalType": "address",
              "name": "tokenContract",
              "type": "address"
            },
            {
              "internalType": "uint256",
              "name": "tokenId",
              "type": "uint256"
            },
            {
              "internalType": "uint80",
              "name": "tokenAmount",
              "type": "uint80"
            },
            {
              "internalType": "uint16",
              "name": "tokenStandard",
              "type": "uint16"
            },
            {
              "internalType": "uint40",
              "name": "endTimestamp",
              "type": "uint40"
            },
            {
              "internalType": "bool",
              "name": "settled",
              "type": "bool"
            },
            {
              "internalType": "uint112",
              "name": "latestBid",
              "type": "uint112"
            },
            {
              "internalType": "address",
              "name": "latestBidder",
              "type": "address"
            },
            {
              "internalType": "address payable",
              "name": "beneficiary",
              "type": "address"
            }
          ],
          "stateMutability": "view",
          "type": "function"
        },
        {
          "inputs": [
            {
              "internalType": "address",
              "name": "",
              "type": "address"
            }
          ],
          "name": "balances",
          "outputs": [
            {
              "internalType": "uint256",
              "name": "",
              "type": "uint256"
            }
          ],
          "stateMutability": "view",
          "type": "function"
        },
        {
          "inputs": [
            {
              "internalType": "uint256",
              "name": "id",
              "type": "uint256"
            }
          ],
          "name": "bid",
          "outputs": [],
          "stateMutability": "payable",
          "type": "function"
        },
        {
          "inputs": [
            {
              "internalType": "uint256",
              "name": "id",
              "type": "uint256"
            }
          ],
          "name": "currentBidPrice",
          "outputs": [
            {
              "internalType": "uint256",
              "name": "",
              "type": "uint256"
            }
          ],
          "stateMutability": "view",
          "type": "function"
        },
        {
          "inputs": [
            {
              "internalType": "address",
              "name": "",
              "type": "address"
            },
            {
              "internalType": "address",
              "name": "",
              "type": "address"
            },
            {
              "internalType": "uint256[]",
              "name": "",
              "type": "uint256[]"
            },
            {
              "internalType": "uint256[]",
              "name": "",
              "type": "uint256[]"
            },
            {
              "internalType": "bytes",
              "name": "",
              "type": "bytes"
            }
          ],
          "name": "onERC1155BatchReceived",
          "outputs": [
            {
              "internalType": "bytes4",
              "name": "",
              "type": "bytes4"
            }
          ],
          "stateMutability": "nonpayable",
          "type": "function"
        },
        {
          "inputs": [
            {
              "internalType": "address",
              "name": "",
              "type": "address"
            },
            {
              "internalType": "address",
              "name": "from",
              "type": "address"
            },
            {
              "internalType": "uint256",
              "name": "id",
              "type": "uint256"
            },
            {
              "internalType": "uint256",
              "name": "value",
              "type": "uint256"
            },
            {
              "internalType": "bytes",
              "name": "data",
              "type": "bytes"
            }
          ],
          "name": "onERC1155Received",
          "outputs": [
            {
              "internalType": "bytes4",
              "name": "",
              "type": "bytes4"
            }
          ],
          "stateMutability": "nonpayable",
          "type": "function"
        },
        {
          "inputs": [
            {
              "internalType": "address",
              "name": "",
              "type": "address"
            },
            {
              "internalType": "address",
              "name": "from",
              "type": "address"
            },
            {
              "internalType": "uint256",
              "name": "tokenId",
              "type": "uint256"
            },
            {
              "internalType": "bytes",
              "name": "data",
              "type": "bytes"
            }
          ],
          "name": "onERC721Received",
          "outputs": [
            {
              "internalType": "bytes4",
              "name": "",
              "type": "bytes4"
            }
          ],
          "stateMutability": "nonpayable",
          "type": "function"
        },
        {
          "inputs": [
            {
              "internalType": "uint256",
              "name": "id",
              "type": "uint256"
            }
          ],
          "name": "settle",
          "outputs": [],
          "stateMutability": "nonpayable",
          "type": "function"
        },
        {
          "inputs": [
            {
              "internalType": "bytes4",
              "name": "interfaceId",
              "type": "bytes4"
            }
          ],
          "name": "supportsInterface",
          "outputs": [
            {
              "internalType": "bool",
              "name": "",
              "type": "bool"
            }
          ],
          "stateMutability": "view",
          "type": "function"
        },
        {
          "inputs": [],
          "name": "withdraw",
          "outputs": [],
          "stateMutability": "nonpayable",
          "type": "function"
        }
      ],
      "evm": {
        "bytecode": {
          "linkReferences": {},
          "object": "6101006040526201518060805261012c60a052600a60c052670de0b6b3a764000060e05234801561002f57600080fd5b5060805160a05160c05160e051611a986100936000396000818161040701528181611404015261142b01526000818161036901526113cf0152600081816104a00152818161147401526114ca0152600081816103bd015261120d0152611a986000f3fe6080604052600436106100e85760003560e01c806374c025981161008a578063bc197c8111610059578063bc197c8114610429578063cb0fc56d1461046e578063e75429e11461048e578063f23a6e61146104c257600080fd5b806374c02598146103575780638df828001461038b578063a271e525146103ab578063b5a13e4c146103f557600080fd5b806327e235e3116100c657806327e235e3146101975780633ccfd60b146101c4578063454a2ab3146101db578063571a26a0146101ee57600080fd5b806301ffc9a7146100ed57806310782f8f14610122578063150b7a0214610146575b600080fd5b3480156100f957600080fd5b5061010d610108366004611583565b6104e2565b60405190151581526020015b60405180910390f35b34801561012e57600080fd5b5061013860005481565b604051908152602001610119565b34801561015257600080fd5b506101666101613660046116fd565b61057b565b6040517fffffffff000000000000000000000000000000000000000000000000000000009091168152602001610119565b3480156101a357600080fd5b506101386101b2366004611769565b60026020526000908152604090205481565b3480156101d057600080fd5b506101d96105c2565b005b6101d96101e9366004611786565b6106a1565b3480156101fa57600080fd5b506102cd610209366004611786565b60016020819052600091825260409091208054918101546002820154600383015460049093015473ffffffffffffffffffffffffffffffffffffffff94851694929369ffffffffffffffffffff8316936a0100000000000000000000840461ffff16936c01000000000000000000000000810464ffffffffff169371010000000000000000000000000000000000820460ff169372010000000000000000000000000000000000009092046dffffffffffffffffffffffffffff1692918216911689565b6040805173ffffffffffffffffffffffffffffffffffffffff9a8b168152602081019990995269ffffffffffffffffffff9097169688019690965261ffff909416606087015264ffffffffff9092166080860152151560a08501526dffffffffffffffffffffffffffff1660c0840152831660e08301529190911661010082015261012001610119565b34801561036357600080fd5b506101387f000000000000000000000000000000000000000000000000000000000000000081565b34801561039757600080fd5b506101d96103a6366004611786565b610a75565b3480156103b757600080fd5b506103df7f000000000000000000000000000000000000000000000000000000000000000081565b60405164ffffffffff9091168152602001610119565b34801561040157600080fd5b506101387f000000000000000000000000000000000000000000000000000000000000000081565b34801561043557600080fd5b5061016661044436600461181f565b7fbc197c810000000000000000000000000000000000000000000000000000000095945050505050565b34801561047a57600080fd5b50610138610489366004611786565b61101e565b34801561049a57600080fd5b506103df7f000000000000000000000000000000000000000000000000000000000000000081565b3480156104ce57600080fd5b506101666104dd3660046118cd565b611118565b60007fffffffff0000000000000000000000000000000000000000000000000000000082167f4e2312e000000000000000000000000000000000000000000000000000000000148061057557507f01ffc9a7000000000000000000000000000000000000000000000000000000007fffffffff000000000000000000000000000000000000000000000000000000008316145b92915050565b60003361059781856102d16001610592888b61119d565b6111eb565b507f150b7a020000000000000000000000000000000000000000000000000000000095945050505050565b336000908152600260205260408120549081900361060c576040517fbbd8170800000000000000000000000000000000000000000000000000000000815260040160405180910390fd5b336000818152600260205260408082208290555190919083908381818185875af1925050503d806000811461065d576040519150601f19603f3d011682016040523d82523d6000602084013e610662565b606091505b505090508061069d576040517fa124823500000000000000000000000000000000000000000000000000000000815260040160405180910390fd5b5050565b60008181526001602081815260409283902060038101546002820154855161012081018752835473ffffffffffffffffffffffffffffffffffffffff9081168252958401549481019490945269ffffffffffffffffffff8116958401959095526a0100000000000000000000850461ffff1660608401526c01000000000000000000000000850464ffffffffff16608084015271010000000000000000000000000000000000850460ff16151560a084015272010000000000000000000000000000000000009094046dffffffffffffffffffffffffffff1660c0830181905293831660e0830181905260048201549093166101008301529290339034906107a890611386565b8110156107e1576040517f4285416300000000000000000000000000000000000000000000000000000000815260040160405180910390fd5b60028501546c01000000000000000000000000900464ffffffffff16421115610836576040517f69b8d0fe00000000000000000000000000000000000000000000000000000000815260040160405180910390fd5b6108408686611466565b6002850180546dffffffffffffffffffffffffffff838116720100000000000000000000000000000000000090810271ffffffffffffffffffffffffffffffffffff841681179485905560038a01805473ffffffffffffffffffffffffffffffffffffffff8981167fffffffffffffffffffffffff0000000000000000000000000000000000000000909216821790925560408051610120810182528d548416815260018e0154602082015269ffffffffffffffffffff94851694909716939093179286019290925261ffff6a0100000000000000000000870416606086015264ffffffffff6c01000000000000000000000000870416608086015260ff71010000000000000000000000000000000000870416151560a08601529190940490911660c0830181905260e08301939093526004880154166101009091015215610a285760008473ffffffffffffffffffffffffffffffffffffffff168460405160006040518083038185875af1925050503d80600081146109dd576040519150601f19603f3d011682016040523d82523d6000602084013e6109e2565b606091505b5050905080610a265773ffffffffffffffffffffffffffffffffffffffff851660009081526002602052604081208054869290610a20908490611965565b90915550505b505b8173ffffffffffffffffffffffffffffffffffffffff1681877ffd7cfbd219ff1e7365436fb2930a026fa6704a1e0bb39ad104f0485c8c01124d60405160405180910390a4505050505050565b6000818152600160205260409020600281015471010000000000000000000000000000000000900460ff1615610ad7576040517f4f4fee1700000000000000000000000000000000000000000000000000000000815260040160405180910390fd5b60028101546c01000000000000000000000000900464ffffffffff16600003610b2c576040517fe6759c6700000000000000000000000000000000000000000000000000000000815260040160405180910390fd5b60028101546c01000000000000000000000000900464ffffffffff164211610b80576040517f9510b0d600000000000000000000000000000000000000000000000000000000815260040160405180910390fd5b6040805161012081018252825473ffffffffffffffffffffffffffffffffffffffff908116825260018401546020830152600284015469ffffffffffffffffffff8116938301939093526a0100000000000000000000830461ffff1660608301526c01000000000000000000000000830464ffffffffff16608083015271010000000000000000000000000000000000830460ff16151560a083015272010000000000000000000000000000000000009092046dffffffffffffffffffffffffffff1660c082018190526003840154831660e08301526004840154909216610100909101521515600081610c8e57600483015473ffffffffffffffffffffffffffffffffffffffff16610caa565b600383015473ffffffffffffffffffffffffffffffffffffffff165b6002840180547fffffffffffffffffffffffffffff00ffffffffffffffffffffffffffffffffff167101000000000000000000000000000000000017905590508115610df3576004830154600284015460405160009273ffffffffffffffffffffffffffffffffffffffff1691720100000000000000000000000000000000000090046dffffffffffffffffffffffffffff16908381818185875af1925050503d8060008114610d76576040519150601f19603f3d011682016040523d82523d6000602084013e610d7b565b606091505b5050905080610df157600284810154600486015473ffffffffffffffffffffffffffffffffffffffff16600090815260209290925260408220805472010000000000000000000000000000000000009092046dffffffffffffffffffffffffffff16929091610deb908490611965565b90915550505b505b60028301546a0100000000000000000000900461ffff166102d103610ebb57825460018401546040517fb88d4fde00000000000000000000000000000000000000000000000000000000815230600482015273ffffffffffffffffffffffffffffffffffffffff84811660248301526044820192909252608060648201526000608482015291169063b88d4fde9060a401600060405180830381600087803b158015610e9e57600080fd5b505af1158015610eb2573d6000803e3d6000fd5b50505050610f97565b60028301546a0100000000000000000000900461ffff1661048303610f97578254600184015460028501546040517ff242432a00000000000000000000000000000000000000000000000000000000815230600482015273ffffffffffffffffffffffffffffffffffffffff8581166024830152604482019390935269ffffffffffffffffffff909116606482015260a06084820152600060a482015291169063f242432a9060c401600060405180830381600087803b158015610f7e57600080fd5b505af1158015610f92573d6000803e3d6000fd5b505050505b6004830154600284015460405172010000000000000000000000000000000000009091046dffffffffffffffffffffffffffff16815273ffffffffffffffffffffffffffffffffffffffff9182169183169086907f3e25c3675d003af5184b628dd8bd4775b9b3abc7351c3574c90870ca25b55f119060200160405180910390a450505050565b6000818152600160208181526040808420815161012081018352815473ffffffffffffffffffffffffffffffffffffffff90811682529482015493810193909352600281015469ffffffffffffffffffff8116928401929092526a0100000000000000000000820461ffff1660608401526c01000000000000000000000000820464ffffffffff16608084015271010000000000000000000000000000000000820460ff16151560a084015272010000000000000000000000000000000000009091046dffffffffffffffffffffffffffff1660c08301526003810154831660e08301526004015490911661010082015261057590611386565b600069ffffffffffffffffffff831061115d576040517f748e67b200000000000000000000000000000000000000000000000000000000815260040160405180910390fd5b33611171818661048387610592888c61119d565b507ff23a6e61000000000000000000000000000000000000000000000000000000009695505050505050565b600082516020036111e5576000838060200190518101906111be9190611978565b905073ffffffffffffffffffffffffffffffffffffffff8116156111e3579050610575565b505b50919050565b6000805490806111fa83611995565b909155506000905061123364ffffffffff7f00000000000000000000000000000000000000000000000000000000000000001642611965565b60008054815260016020818152604080842080547fffffffffffffffffffffffff000000000000000000000000000000000000000090811673ffffffffffffffffffffffffffffffffffffffff8e811691821784559583018d905560028301805469ffffffffffffffffffff8d167fffffffffffffffffffffffffffffffffffffffff000000000000000000000000909116176a010000000000000000000061ffff8f16908102919091177fffffffffffffffffffffffffffffff0000000000ffffffffffffffffffffffff166c0100000000000000000000000064ffffffffff8c1690810291909117909255600485018054909416978c169788179093559654845192835294820196909652918201939093529394509092889291907fcb1b0405c5d24f2840cd78fac5deecd67b4778ee67c494933cd568cbadbd81da9060600160405180910390a450505050505050565b60006113a58260c001516dffffffffffffffffffffffffffff16151590565b6113b157610575611570565b60c08201516dffffffffffffffffffffffffffff16600060646113f47f0000000000000000000000000000000000000000000000000000000000000000846119cd565b6113fe91906119e4565b905060007f0000000000000000000000000000000000000000000000000000000000000000821061144f577f0000000000000000000000000000000000000000000000000000000000000000611451565b815b905061145d8184611965565b95945050505050565b60028101546000906114b0907f0000000000000000000000000000000000000000000000000000000000000000906c01000000000000000000000000900464ffffffffff16611a1f565b90504264ffffffffff808316908216111561156a576114ef7f000000000000000000000000000000000000000000000000000000000000000082611a44565b6002840180547fffffffffffffffffffffffffffffff0000000000ffffffffffffffffffffffff166c0100000000000000000000000064ffffffffff9384168102919091179182905560405191049091169085907f6e912a3a9105bdd2af817ba5adc14e6c127c1035b5b648faa29ca0d58ab8ff4e90600090a35b50505050565b600061157e4861ea606119cd565b905090565b60006020828403121561159557600080fd5b81357fffffffff00000000000000000000000000000000000000000000000000000000811681146115c557600080fd5b9392505050565b73ffffffffffffffffffffffffffffffffffffffff811681146115ee57600080fd5b50565b7f4e487b7100000000000000000000000000000000000000000000000000000000600052604160045260246000fd5b604051601f82017fffffffffffffffffffffffffffffffffffffffffffffffffffffffffffffffe016810167ffffffffffffffff81118282101715611667576116676115f1565b604052919050565b600082601f83011261168057600080fd5b813567ffffffffffffffff81111561169a5761169a6115f1565b6116cb60207fffffffffffffffffffffffffffffffffffffffffffffffffffffffffffffffe0601f84011601611620565b8181528460208386010111156116e057600080fd5b816020850160208301376000918101602001919091529392505050565b6000806000806080858703121561171357600080fd5b843561171e816115cc565b9350602085013561172e816115cc565b925060408501359150606085013567ffffffffffffffff81111561175157600080fd5b61175d8782880161166f565b91505092959194509250565b60006020828403121561177b57600080fd5b81356115c5816115cc565b60006020828403121561179857600080fd5b5035919050565b600082601f8301126117b057600080fd5b8135602067ffffffffffffffff8211156117cc576117cc6115f1565b8160051b6117db828201611620565b92835284810182019282810190878511156117f557600080fd5b83870192505b84831015611814578235825291830191908301906117fb565b979650505050505050565b600080600080600060a0868803121561183757600080fd5b8535611842816115cc565b94506020860135611852816115cc565b9350604086013567ffffffffffffffff8082111561186f57600080fd5b61187b89838a0161179f565b9450606088013591508082111561189157600080fd5b61189d89838a0161179f565b935060808801359150808211156118b357600080fd5b506118c08882890161166f565b9150509295509295909350565b600080600080600060a086880312156118e557600080fd5b85356118f0816115cc565b94506020860135611900816115cc565b93506040860135925060608601359150608086013567ffffffffffffffff81111561192a57600080fd5b6118c08882890161166f565b7f4e487b7100000000000000000000000000000000000000000000000000000000600052601160045260246000fd5b8082018082111561057557610575611936565b60006020828403121561198a57600080fd5b81516115c5816115cc565b60007fffffffffffffffffffffffffffffffffffffffffffffffffffffffffffffffff82036119c6576119c6611936565b5060010190565b808202811582820484141761057557610575611936565b600082611a1a577f4e487b7100000000000000000000000000000000000000000000000000000000600052601260045260246000fd5b500490565b64ffffffffff828116828216039080821115611a3d57611a3d611936565b5092915050565b64ffffffffff818116838216019080821115611a3d57611a3d61193656fea2646970667358221220a1da90cb35e84359609602e4b50d946ba97d3a7d6b183d5ed2e4ff928b8d575164736f6c63430008180033",
          "opcodes": "PUSH2 0x100 PUSH1 0x40 MSTORE PUSH3 0x15180 PUSH1 0x80 MSTORE PUSH2 0x12C PUSH1 0xA0 MSTORE PUSH1 0xA PUSH1 0xC0 MSTORE PUSH8 0xDE0B6B3A7640000 PUSH1 0xE0 MSTORE CALLVALUE DUP1 ISZERO PUSH2 0x2F JUMPI PUSH1 0x0 DUP1 REVERT JUMPDEST POP PUSH1 0x80 MLOAD PUSH1 0xA0 MLOAD PUSH1 0xC0 MLOAD PUSH1 0xE0 MLOAD PUSH2 0x1A98 PUSH2 0x93 PUSH1 0x0 CODECOPY PUSH1 0x0 DUP2 DUP2 PUSH2 0x407 ADD MSTORE DUP2 DUP2 PUSH2 0x1404 ADD MSTORE PUSH2 0x142B ADD MSTORE PUSH1 0x0 DUP2 DUP2 PUSH2 0x369 ADD MSTORE PUSH2 0x13CF ADD MSTORE PUSH1 0x0 DUP2 DUP2 PUSH2 0x4A0 ADD MSTORE DUP2 DUP2 PUSH2 0x1474 ADD MSTORE PUSH2 0x14CA ADD MSTORE PUSH1 0x0 DUP2 DUP2 PUSH2 0x3BD ADD MSTORE PUSH2 0x120D ADD MSTORE PUSH2 0x1A98 PUSH1 0x0 RETURN INVALID PUSH1 0x80 PUSH1 0x40 MSTORE PUSH1 0x4 CALLDATASIZE LT PUSH2 0xE8 JUMPI PUSH1 0x0 CALLDATALOAD PUSH1 0xE0 SHR DUP1 PUSH4 0x74C02598 GT PUSH2 0x8A JUMPI DUP1 PUSH4 0xBC197C81 GT PUSH2 0x59 JUMPI DUP1 PUSH4 0xBC197C81 EQ PUSH2 0x429 JUMPI DUP1 PUSH4 0xCB0FC56D EQ PUSH2 0x46E JUMPI DUP1 PUSH4 0xE75429E1 EQ PUSH2 0x48E JUMPI DUP1 PUSH4 0xF23A6E61 EQ PUSH2 0x4C2 JUMPI PUSH1 0x0 DUP1 REVERT JUMPDEST DUP1 PUSH4 0x74C02598 EQ PUSH2 0x357 JUMPI DUP1 PUSH4 0x8DF82800 EQ PUSH2 0x38B JUMPI DUP1 PUSH4 0xA271E525 EQ PUSH2 0x3AB JUMPI DUP1 PUSH4 0xB5A13E4C EQ PUSH2 0x3F5 JUMPI PUSH1 0x0 DUP1 REVERT JUMPDEST DUP1 PUSH4 0x27E235E3 GT PUSH2 0xC6 JUMPI DUP1 PUSH4 0x27E235E3 EQ PUSH2 0x197 JUMPI DUP1 PUSH4 0x3CCFD60B EQ PUSH2 0x1C4 JUMPI DUP1 PUSH4 0x454A2AB3 EQ PUSH2 0x1DB JUMPI DUP1 PUSH4 0x571A26A0 EQ PUSH2 0x1EE JUMPI PUSH1 0x0 DUP1 REVERT JUMPDEST DUP1 PUSH4 0x1FFC9A7 EQ PUSH2 0xED JUMPI DUP1 PUSH4 0x10782F8F EQ PUSH2 0x122 JUMPI DUP1 PUSH4 0x150B7A02 EQ PUSH2 0x146 JUMPI JUMPDEST PUSH1 0x0 DUP1 REVERT JUMPDEST CALLVALUE DUP1 ISZERO PUSH2 0xF9 JUMPI PUSH1 0x0 DUP1 REVERT JUMPDEST POP PUSH2 0x10D PUSH2 0x108 CALLDATASIZE PUSH1 0x4 PUSH2 0x1583 JUMP JUMPDEST PUSH2 0x4E2 JUMP JUMPDEST PUSH1 0x40 MLOAD SWAP1 ISZERO ISZERO DUP2 MSTORE PUSH1 0x20 ADD JUMPDEST PUSH1 0x40 MLOAD DUP1 SWAP2 SUB SWAP1 RETURN JUMPDEST CALLVALUE DUP1 ISZERO PUSH2 0x12E JUMPI PUSH1 0x0 DUP1 REVERT JUMPDEST POP PUSH2 0x138 PUSH1 0x0 SLOAD DUP2 JUMP JUMPDEST PUSH1 0x40 MLOAD SWAP1 DUP2 MSTORE PUSH1 0x20 ADD PUSH2 0x119 JUMP JUMPDEST CALLVALUE DUP1 ISZERO PUSH2 0x152 JUMPI PUSH1 0x0 DUP1 REVERT JUMPDEST POP PUSH2 0x166 PUSH2 0x161 CALLDATASIZE PUSH1 0x4 PUSH2 0x16FD JUMP JUMPDEST PUSH2 0x57B JUMP JUMPDEST PUSH1 0x40 MLOAD PUSH32 0xFFFFFFFF00000000000000000000000000000000000000000000000000000000 SWAP1 SWAP2 AND DUP2 MSTORE PUSH1 0x20 ADD PUSH2 0x119 JUMP JUMPDEST CALLVALUE DUP1 ISZERO PUSH2 0x1A3 JUMPI PUSH1 0x0 DUP1 REVERT JUMPDEST POP PUSH2 0x138 PUSH2 0x1B2 CALLDATASIZE PUSH1 0x4 PUSH2 0x1769 JUMP JUMPDEST PUSH1 0x2 PUSH1 0x20 MSTORE PUSH1 0x0 SWAP1 DUP2 MSTORE PUSH1 0x40 SWAP1 KECCAK256 SLOAD DUP2 JUMP JUMPDEST CALLVALUE DUP1 ISZERO PUSH2 0x1D0 JUMPI PUSH1 0x0 DUP1 REVERT JUMPDEST POP PUSH2 0x1D9 PUSH2 0x5C2 JUMP JUMPDEST STOP JUMPDEST PUSH2 0x1D9 PUSH2 0x1E9 CALLDATASIZE PUSH1 0x4 PUSH2 0x1786 JUMP JUMPDEST PUSH2 0x6A1 JUMP JUMPDEST CALLVALUE DUP1 ISZERO PUSH2 0x1FA JUMPI PUSH1 0x0 DUP1 REVERT JUMPDEST POP PUSH2 0x2CD PUSH2 0x209 CALLDATASIZE PUSH1 0x4 PUSH2 0x1786 JUMP JUMPDEST PUSH1 0x1 PUSH1 0x20 DUP2 SWAP1 MSTORE PUSH1 0x0 SWAP2 DUP3 MSTORE PUSH1 0x40 SWAP1 SWAP2 KECCAK256 DUP1 SLOAD SWAP2 DUP2 ADD SLOAD PUSH1 0x2 DUP3 ADD SLOAD PUSH1 0x3 DUP4 ADD SLOAD PUSH1 0x4 SWAP1 SWAP4 ADD SLOAD PUSH20 0xFFFFFFFFFFFFFFFFFFFFFFFFFFFFFFFFFFFFFFFF SWAP5 DUP6 AND SWAP5 SWAP3 SWAP4 PUSH10 0xFFFFFFFFFFFFFFFFFFFF DUP4 AND SWAP4 PUSH11 0x100000000000000000000 DUP5 DIV PUSH2 0xFFFF AND SWAP4 PUSH13 0x1000000000000000000000000 DUP2 DIV PUSH5 0xFFFFFFFFFF AND SWAP4 PUSH18 0x10000000000000000000000000000000000 DUP3 DIV PUSH1 0xFF AND SWAP4 PUSH19 0x1000000000000000000000000000000000000 SWAP1 SWAP3 DIV PUSH14 0xFFFFFFFFFFFFFFFFFFFFFFFFFFFF AND SWAP3 SWAP2 DUP3 AND SWAP2 AND DUP10 JUMP JUMPDEST PUSH1 0x40 DUP1 MLOAD PUSH20 0xFFFFFFFFFFFFFFFFFFFFFFFFFFFFFFFFFFFFFFFF SWAP11 DUP12 AND DUP2 MSTORE PUSH1 0x20 DUP2 ADD SWAP10 SWAP1 SWAP10 MSTORE PUSH10 0xFFFFFFFFFFFFFFFFFFFF SWAP1 SWAP8 AND SWAP7 DUP9 ADD SWAP7 SWAP1 SWAP7 MSTORE PUSH2 0xFFFF SWAP1 SWAP5 AND PUSH1 0x60 DUP8 ADD MSTORE PUSH5 0xFFFFFFFFFF SWAP1 SWAP3 AND PUSH1 0x80 DUP7 ADD MSTORE ISZERO ISZERO PUSH1 0xA0 DUP6 ADD MSTORE PUSH14 0xFFFFFFFFFFFFFFFFFFFFFFFFFFFF AND PUSH1 0xC0 DUP5 ADD MSTORE DUP4 AND PUSH1 0xE0 DUP4 ADD MSTORE SWAP2 SWAP1 SWAP2 AND PUSH2 0x100 DUP3 ADD MSTORE PUSH2 0x120 ADD PUSH2 0x119 JUMP JUMPDEST CALLVALUE DUP1 ISZERO PUSH2 0x363 JUMPI PUSH1 0x0 DUP1 REVERT JUMPDEST POP PUSH2 0x138 PUSH32 0x0 DUP2 JUMP JUMPDEST CALLVALUE DUP1 ISZERO PUSH2 0x397 JUMPI PUSH1 0x0 DUP1 REVERT JUMPDEST POP PUSH2 0x1D9 PUSH2 0x3A6 CALLDATASIZE PUSH1 0x4 PUSH2 0x1786 JUMP JUMPDEST PUSH2 0xA75 JUMP JUMPDEST CALLVALUE DUP1 ISZERO PUSH2 0x3B7 JUMPI PUSH1 0x0 DUP1 REVERT JUMPDEST POP PUSH2 0x3DF PUSH32 0x0 DUP2 JUMP JUMPDEST PUSH1 0x40 MLOAD PUSH5 0xFFFFFFFFFF SWAP1 SWAP2 AND DUP2 MSTORE PUSH1 0x20 ADD PUSH2 0x119 JUMP JUMPDEST CALLVALUE DUP1 ISZERO PUSH2 0x401 JUMPI PUSH1 0x0 DUP1 REVERT JUMPDEST POP PUSH2 0x138 PUSH32 0x0 DUP2 JUMP JUMPDEST CALLVALUE DUP1 ISZERO PUSH2 0x435 JUMPI PUSH1 0x0 DUP1 REVERT JUMPDEST POP PUSH2 0x166 PUSH2 0x444 CALLDATASIZE PUSH1 0x4 PUSH2 0x181F JUMP JUMPDEST PUSH32 0xBC197C8100000000000000000000000000000000000000000000000000000000 SWAP6 SWAP5 POP POP POP POP POP JUMP JUMPDEST CALLVALUE DUP1 ISZERO PUSH2 0x47A JUMPI PUSH1 0x0 DUP1 REVERT JUMPDEST POP PUSH2 0x138 PUSH2 0x489 CALLDATASIZE PUSH1 0x4 PUSH2 0x1786 JUMP JUMPDEST PUSH2 0x101E JUMP JUMPDEST CALLVALUE DUP1 ISZERO PUSH2 0x49A JUMPI PUSH1 0x0 DUP1 REVERT JUMPDEST POP PUSH2 0x3DF PUSH32 0x0 DUP2 JUMP JUMPDEST CALLVALUE DUP1 ISZERO PUSH2 0x4CE JUMPI PUSH1 0x0 DUP1 REVERT JUMPDEST POP PUSH2 0x166 PUSH2 0x4DD CALLDATASIZE PUSH1 0x4 PUSH2 0x18CD JUMP JUMPDEST PUSH2 0x1118 JUMP JUMPDEST PUSH1 0x0 PUSH32 0xFFFFFFFF00000000000000000000000000000000000000000000000000000000 DUP3 AND PUSH32 0x4E2312E000000000000000000000000000000000000000000000000000000000 EQ DUP1 PUSH2 0x575 JUMPI POP PUSH32 0x1FFC9A700000000000000000000000000000000000000000000000000000000 PUSH32 0xFFFFFFFF00000000000000000000000000000000000000000000000000000000 DUP4 AND EQ JUMPDEST SWAP3 SWAP2 POP POP JUMP JUMPDEST PUSH1 0x0 CALLER PUSH2 0x597 DUP2 DUP6 PUSH2 0x2D1 PUSH1 0x1 PUSH2 0x592 DUP9 DUP12 PUSH2 0x119D JUMP JUMPDEST PUSH2 0x11EB JUMP JUMPDEST POP PUSH32 0x150B7A0200000000000000000000000000000000000000000000000000000000 SWAP6 SWAP5 POP POP POP POP POP JUMP JUMPDEST CALLER PUSH1 0x0 SWAP1 DUP2 MSTORE PUSH1 0x2 PUSH1 0x20 MSTORE PUSH1 0x40 DUP2 KECCAK256 SLOAD SWAP1 DUP2 SWAP1 SUB PUSH2 0x60C JUMPI PUSH1 0x40 MLOAD PUSH32 0xBBD8170800000000000000000000000000000000000000000000000000000000 DUP2 MSTORE PUSH1 0x4 ADD PUSH1 0x40 MLOAD DUP1 SWAP2 SUB SWAP1 REVERT JUMPDEST CALLER PUSH1 0x0 DUP2 DUP2 MSTORE PUSH1 0x2 PUSH1 0x20 MSTORE PUSH1 0x40 DUP1 DUP3 KECCAK256 DUP3 SWAP1 SSTORE MLOAD SWAP1 SWAP2 SWAP1 DUP4 SWAP1 DUP4 DUP2 DUP2 DUP2 DUP6 DUP8 GAS CALL SWAP3 POP POP POP RETURNDATASIZE DUP1 PUSH1 0x0 DUP2 EQ PUSH2 0x65D JUMPI PUSH1 0x40 MLOAD SWAP2 POP PUSH1 0x1F NOT PUSH1 0x3F RETURNDATASIZE ADD AND DUP3 ADD PUSH1 0x40 MSTORE RETURNDATASIZE DUP3 MSTORE RETURNDATASIZE PUSH1 0x0 PUSH1 0x20 DUP5 ADD RETURNDATACOPY PUSH2 0x662 JUMP JUMPDEST PUSH1 0x60 SWAP2 POP JUMPDEST POP POP SWAP1 POP DUP1 PUSH2 0x69D JUMPI PUSH1 0x40 MLOAD PUSH32 0xA124823500000000000000000000000000000000000000000000000000000000 DUP2 MSTORE PUSH1 0x4 ADD PUSH1 0x40 MLOAD DUP1 SWAP2 SUB SWAP1 REVERT JUMPDEST POP POP JUMP JUMPDEST PUSH1 0x0 DUP2 DUP2 MSTORE PUSH1 0x1 PUSH1 0x20 DUP2 DUP2 MSTORE PUSH1 0x40 SWAP3 DUP4 SWAP1 KECCAK256 PUSH1 0x3 DUP2 ADD SLOAD PUSH1 0x2 DUP3 ADD SLOAD DUP6 MLOAD PUSH2 0x120 DUP2 ADD DUP8 MSTORE DUP4 SLOAD PUSH20 0xFFFFFFFFFFFFFFFFFFFFFFFFFFFFFFFFFFFFFFFF SWAP1 DUP2 AND DUP3 MSTORE SWAP6 DUP5 ADD SLOAD SWAP5 DUP2 ADD SWAP5 SWAP1 SWAP5 MSTORE PUSH10 0xFFFFFFFFFFFFFFFFFFFF DUP2 AND SWAP6 DUP5 ADD SWAP6 SWAP1 SWAP6 MSTORE PUSH11 0x100000000000000000000 DUP6 DIV PUSH2 0xFFFF AND PUSH1 0x60 DUP5 ADD MSTORE PUSH13 0x1000000000000000000000000 DUP6 DIV PUSH5 0xFFFFFFFFFF AND PUSH1 0x80 DUP5 ADD MSTORE PUSH18 0x10000000000000000000000000000000000 DUP6 DIV PUSH1 0xFF AND ISZERO ISZERO PUSH1 0xA0 DUP5 ADD MSTORE PUSH19 0x1000000000000000000000000000000000000 SWAP1 SWAP5 DIV PUSH14 0xFFFFFFFFFFFFFFFFFFFFFFFFFFFF AND PUSH1 0xC0 DUP4 ADD DUP2 SWAP1 MSTORE SWAP4 DUP4 AND PUSH1 0xE0 DUP4 ADD DUP2 SWAP1 MSTORE PUSH1 0x4 DUP3 ADD SLOAD SWAP1 SWAP4 AND PUSH2 0x100 DUP4 ADD MSTORE SWAP3 SWAP1 CALLER SWAP1 CALLVALUE SWAP1 PUSH2 0x7A8 SWAP1 PUSH2 0x1386 JUMP JUMPDEST DUP2 LT ISZERO PUSH2 0x7E1 JUMPI PUSH1 0x40 MLOAD PUSH32 0x4285416300000000000000000000000000000000000000000000000000000000 DUP2 MSTORE PUSH1 0x4 ADD PUSH1 0x40 MLOAD DUP1 SWAP2 SUB SWAP1 REVERT JUMPDEST PUSH1 0x2 DUP6 ADD SLOAD PUSH13 0x1000000000000000000000000 SWAP1 DIV PUSH5 0xFFFFFFFFFF AND TIMESTAMP GT ISZERO PUSH2 0x836 JUMPI PUSH1 0x40 MLOAD PUSH32 0x69B8D0FE00000000000000000000000000000000000000000000000000000000 DUP2 MSTORE PUSH1 0x4 ADD PUSH1 0x40 MLOAD DUP1 SWAP2 SUB SWAP1 REVERT JUMPDEST PUSH2 0x840 DUP7 DUP7 PUSH2 0x1466 JUMP JUMPDEST PUSH1 0x2 DUP6 ADD DUP1 SLOAD PUSH14 0xFFFFFFFFFFFFFFFFFFFFFFFFFFFF DUP4 DUP2 AND PUSH19 0x1000000000000000000000000000000000000 SWAP1 DUP2 MUL PUSH18 0xFFFFFFFFFFFFFFFFFFFFFFFFFFFFFFFFFFFF DUP5 AND DUP2 OR SWAP5 DUP6 SWAP1 SSTORE PUSH1 0x3 DUP11 ADD DUP1 SLOAD PUSH20 0xFFFFFFFFFFFFFFFFFFFFFFFFFFFFFFFFFFFFFFFF DUP10 DUP2 AND PUSH32 0xFFFFFFFFFFFFFFFFFFFFFFFF0000000000000000000000000000000000000000 SWAP1 SWAP3 AND DUP3 OR SWAP1 SWAP3 SSTORE PUSH1 0x40 DUP1 MLOAD PUSH2 0x120 DUP2 ADD DUP3 MSTORE DUP14 SLOAD DUP5 AND DUP2 MSTORE PUSH1 0x1 DUP15 ADD SLOAD PUSH1 0x20 DUP3 ADD MSTORE PUSH10 0xFFFFFFFFFFFFFFFFFFFF SWAP5 DUP6 AND SWAP5 SWAP1 SWAP8 AND SWAP4 SWAP1 SWAP4 OR SWAP3 DUP7 ADD SWAP3 SWAP1 SWAP3 MSTORE PUSH2 0xFFFF PUSH11 0x100000000000000000000 DUP8 DIV AND PUSH1 0x60 DUP7 ADD MSTORE PUSH5 0xFFFFFFFFFF PUSH13 0x1000000000000000000000000 DUP8 DIV AND PUSH1 0x80 DUP7 ADD MSTORE PUSH1 0xFF PUSH18 0x10000000000000000000000000000000000 DUP8 DIV AND ISZERO ISZERO PUSH1 0xA0 DUP7 ADD MSTORE SWAP2 SWAP1 SWAP5 DIV SWAP1 SWAP2 AND PUSH1 0xC0 DUP4 ADD DUP2 SWAP1 MSTORE PUSH1 0xE0 DUP4 ADD SWAP4 SWAP1 SWAP4 MSTORE PUSH1 0x4 DUP9 ADD SLOAD AND PUSH2 0x100 SWAP1 SWAP2 ADD MSTORE ISZERO PUSH2 0xA28 JUMPI PUSH1 0x0 DUP5 PUSH20 0xFFFFFFFFFFFFFFFFFFFFFFFFFFFFFFFFFFFFFFFF AND DUP5 PUSH1 0x40 MLOAD PUSH1 0x0 PUSH1 0x40 MLOAD DUP1 DUP4 SUB DUP2 DUP6 DUP8 GAS CALL SWAP3 POP POP POP RETURNDATASIZE DUP1 PUSH1 0x0 DUP2 EQ PUSH2 0x9DD JUMPI PUSH1 0x40 MLOAD SWAP2 POP PUSH1 0x1F NOT PUSH1 0x3F RETURNDATASIZE ADD AND DUP3 ADD PUSH1 0x40 MSTORE RETURNDATASIZE DUP3 MSTORE RETURNDATASIZE PUSH1 0x0 PUSH1 0x20 DUP5 ADD RETURNDATACOPY PUSH2 0x9E2 JUMP JUMPDEST PUSH1 0x60 SWAP2 POP JUMPDEST POP POP SWAP1 POP DUP1 PUSH2 0xA26 JUMPI PUSH20 0xFFFFFFFFFFFFFFFFFFFFFFFFFFFFFFFFFFFFFFFF DUP6 AND PUSH1 0x0 SWAP1 DUP2 MSTORE PUSH1 0x2 PUSH1 0x20 MSTORE PUSH1 0x40 DUP2 KECCAK256 DUP1 SLOAD DUP7 SWAP3 SWAP1 PUSH2 0xA20 SWAP1 DUP5 SWAP1 PUSH2 0x1965 JUMP JUMPDEST SWAP1 SWAP2 SSTORE POP POP JUMPDEST POP JUMPDEST DUP2 PUSH20 0xFFFFFFFFFFFFFFFFFFFFFFFFFFFFFFFFFFFFFFFF AND DUP2 DUP8 PUSH32 0xFD7CFBD219FF1E7365436FB2930A026FA6704A1E0BB39AD104F0485C8C01124D PUSH1 0x40 MLOAD PUSH1 0x40 MLOAD DUP1 SWAP2 SUB SWAP1 LOG4 POP POP POP POP POP POP JUMP JUMPDEST PUSH1 0x0 DUP2 DUP2 MSTORE PUSH1 0x1 PUSH1 0x20 MSTORE PUSH1 0x40 SWAP1 KECCAK256 PUSH1 0x2 DUP2 ADD SLOAD PUSH18 0x10000000000000000000000000000000000 SWAP1 DIV PUSH1 0xFF AND ISZERO PUSH2 0xAD7 JUMPI PUSH1 0x40 MLOAD PUSH32 0x4F4FEE1700000000000000000000000000000000000000000000000000000000 DUP2 MSTORE PUSH1 0x4 ADD PUSH1 0x40 MLOAD DUP1 SWAP2 SUB SWAP1 REVERT JUMPDEST PUSH1 0x2 DUP2 ADD SLOAD PUSH13 0x1000000000000000000000000 SWAP1 DIV PUSH5 0xFFFFFFFFFF AND PUSH1 0x0 SUB PUSH2 0xB2C JUMPI PUSH1 0x40 MLOAD PUSH32 0xE6759C6700000000000000000000000000000000000000000000000000000000 DUP2 MSTORE PUSH1 0x4 ADD PUSH1 0x40 MLOAD DUP1 SWAP2 SUB SWAP1 REVERT JUMPDEST PUSH1 0x2 DUP2 ADD SLOAD PUSH13 0x1000000000000000000000000 SWAP1 DIV PUSH5 0xFFFFFFFFFF AND TIMESTAMP GT PUSH2 0xB80 JUMPI PUSH1 0x40 MLOAD PUSH32 0x9510B0D600000000000000000000000000000000000000000000000000000000 DUP2 MSTORE PUSH1 0x4 ADD PUSH1 0x40 MLOAD DUP1 SWAP2 SUB SWAP1 REVERT JUMPDEST PUSH1 0x40 DUP1 MLOAD PUSH2 0x120 DUP2 ADD DUP3 MSTORE DUP3 SLOAD PUSH20 0xFFFFFFFFFFFFFFFFFFFFFFFFFFFFFFFFFFFFFFFF SWAP1 DUP2 AND DUP3 MSTORE PUSH1 0x1 DUP5 ADD SLOAD PUSH1 0x20 DUP4 ADD MSTORE PUSH1 0x2 DUP5 ADD SLOAD PUSH10 0xFFFFFFFFFFFFFFFFFFFF DUP2 AND SWAP4 DUP4 ADD SWAP4 SWAP1 SWAP4 MSTORE PUSH11 0x100000000000000000000 DUP4 DIV PUSH2 0xFFFF AND PUSH1 0x60 DUP4 ADD MSTORE PUSH13 0x1000000000000000000000000 DUP4 DIV PUSH5 0xFFFFFFFFFF AND PUSH1 0x80 DUP4 ADD MSTORE PUSH18 0x10000000000000000000000000000000000 DUP4 DIV PUSH1 0xFF AND ISZERO ISZERO PUSH1 0xA0 DUP4 ADD MSTORE PUSH19 0x1000000000000000000000000000000000000 SWAP1 SWAP3 DIV PUSH14 0xFFFFFFFFFFFFFFFFFFFFFFFFFFFF AND PUSH1 0xC0 DUP3 ADD DUP2 SWAP1 MSTORE PUSH1 0x3 DUP5 ADD SLOAD DUP4 AND PUSH1 0xE0 DUP4 ADD MSTORE PUSH1 0x4 DUP5 ADD SLOAD SWAP1 SWAP3 AND PUSH2 0x100 SWAP1 SWAP2 ADD MSTORE ISZERO ISZERO PUSH1 0x0 DUP2 PUSH2 0xC8E JUMPI PUSH1 0x4 DUP4 ADD SLOAD PUSH20 0xFFFFFFFFFFFFFFFFFFFFFFFFFFFFFFFFFFFFFFFF AND PUSH2 0xCAA JUMP JUMPDEST PUSH1 0x3 DUP4 ADD SLOAD PUSH20 0xFFFFFFFFFFFFFFFFFFFFFFFFFFFFFFFFFFFFFFFF AND JUMPDEST PUSH1 0x2 DUP5 ADD DUP1 SLOAD PUSH32 0xFFFFFFFFFFFFFFFFFFFFFFFFFFFF00FFFFFFFFFFFFFFFFFFFFFFFFFFFFFFFFFF AND PUSH18 0x10000000000000000000000000000000000 OR SWAP1 SSTORE SWAP1 POP DUP2 ISZERO PUSH2 0xDF3 JUMPI PUSH1 0x4 DUP4 ADD SLOAD PUSH1 0x2 DUP5 ADD SLOAD PUSH1 0x40 MLOAD PUSH1 0x0 SWAP3 PUSH20 0xFFFFFFFFFFFFFFFFFFFFFFFFFFFFFFFFFFFFFFFF AND SWAP2 PUSH19 0x1000000000000000000000000000000000000 SWAP1 DIV PUSH14 0xFFFFFFFFFFFFFFFFFFFFFFFFFFFF AND SWAP1 DUP4 DUP2 DUP2 DUP2 DUP6 DUP8 GAS CALL SWAP3 POP POP POP RETURNDATASIZE DUP1 PUSH1 0x0 DUP2 EQ PUSH2 0xD76 JUMPI PUSH1 0x40 MLOAD SWAP2 POP PUSH1 0x1F NOT PUSH1 0x3F RETURNDATASIZE ADD AND DUP3 ADD PUSH1 0x40 MSTORE RETURNDATASIZE DUP3 MSTORE RETURNDATASIZE PUSH1 0x0 PUSH1 0x20 DUP5 ADD RETURNDATACOPY PUSH2 0xD7B JUMP JUMPDEST PUSH1 0x60 SWAP2 POP JUMPDEST POP POP SWAP1 POP DUP1 PUSH2 0xDF1 JUMPI PUSH1 0x2 DUP5 DUP2 ADD SLOAD PUSH1 0x4 DUP7 ADD SLOAD PUSH20 0xFFFFFFFFFFFFFFFFFFFFFFFFFFFFFFFFFFFFFFFF AND PUSH1 0x0 SWAP1 DUP2 MSTORE PUSH1 0x20 SWAP3 SWAP1 SWAP3 MSTORE PUSH1 0x40 DUP3 KECCAK256 DUP1 SLOAD PUSH19 0x1000000000000000000000000000000000000 SWAP1 SWAP3 DIV PUSH14 0xFFFFFFFFFFFFFFFFFFFFFFFFFFFF AND SWAP3 SWAP1 SWAP2 PUSH2 0xDEB SWAP1 DUP5 SWAP1 PUSH2 0x1965 JUMP JUMPDEST SWAP1 SWAP2 SSTORE POP POP JUMPDEST POP JUMPDEST PUSH1 0x2 DUP4 ADD SLOAD PUSH11 0x100000000000000000000 SWAP1 DIV PUSH2 0xFFFF AND PUSH2 0x2D1 SUB PUSH2 0xEBB JUMPI DUP3 SLOAD PUSH1 0x1 DUP5 ADD SLOAD PUSH1 0x40 MLOAD PUSH32 0xB88D4FDE00000000000000000000000000000000000000000000000000000000 DUP2 MSTORE ADDRESS PUSH1 0x4 DUP3 ADD MSTORE PUSH20 0xFFFFFFFFFFFFFFFFFFFFFFFFFFFFFFFFFFFFFFFF DUP5 DUP2 AND PUSH1 0x24 DUP4 ADD MSTORE PUSH1 0x44 DUP3 ADD SWAP3 SWAP1 SWAP3 MSTORE PUSH1 0x80 PUSH1 0x64 DUP3 ADD MSTORE PUSH1 0x0 PUSH1 0x84 DUP3 ADD MSTORE SWAP2 AND SWAP1 PUSH4 0xB88D4FDE SWAP1 PUSH1 0xA4 ADD PUSH1 0x0 PUSH1 0x40 MLOAD DUP1 DUP4 SUB DUP2 PUSH1 0x0 DUP8 DUP1 EXTCODESIZE ISZERO DUP1 ISZERO PUSH2 0xE9E JUMPI PUSH1 0x0 DUP1 REVERT JUMPDEST POP GAS CALL ISZERO DUP1 ISZERO PUSH2 0xEB2 JUMPI RETURNDATASIZE PUSH1 0x0 DUP1 RETURNDATACOPY RETURNDATASIZE PUSH1 0x0 REVERT JUMPDEST POP POP POP POP PUSH2 0xF97 JUMP JUMPDEST PUSH1 0x2 DUP4 ADD SLOAD PUSH11 0x100000000000000000000 SWAP1 DIV PUSH2 0xFFFF AND PUSH2 0x483 SUB PUSH2 0xF97 JUMPI DUP3 SLOAD PUSH1 0x1 DUP5 ADD SLOAD PUSH1 0x2 DUP6 ADD SLOAD PUSH1 0x40 MLOAD PUSH32 0xF242432A00000000000000000000000000000000000000000000000000000000 DUP2 MSTORE ADDRESS PUSH1 0x4 DUP3 ADD MSTORE PUSH20 0xFFFFFFFFFFFFFFFFFFFFFFFFFFFFFFFFFFFFFFFF DUP6 DUP2 AND PUSH1 0x24 DUP4 ADD MSTORE PUSH1 0x44 DUP3 ADD SWAP4 SWAP1 SWAP4 MSTORE PUSH10 0xFFFFFFFFFFFFFFFFFFFF SWAP1 SWAP2 AND PUSH1 0x64 DUP3 ADD MSTORE PUSH1 0xA0 PUSH1 0x84 DUP3 ADD MSTORE PUSH1 0x0 PUSH1 0xA4 DUP3 ADD MSTORE SWAP2 AND SWAP1 PUSH4 0xF242432A SWAP1 PUSH1 0xC4 ADD PUSH1 0x0 PUSH1 0x40 MLOAD DUP1 DUP4 SUB DUP2 PUSH1 0x0 DUP8 DUP1 EXTCODESIZE ISZERO DUP1 ISZERO PUSH2 0xF7E JUMPI PUSH1 0x0 DUP1 REVERT JUMPDEST POP GAS CALL ISZERO DUP1 ISZERO PUSH2 0xF92 JUMPI RETURNDATASIZE PUSH1 0x0 DUP1 RETURNDATACOPY RETURNDATASIZE PUSH1 0x0 REVERT JUMPDEST POP POP POP POP JUMPDEST PUSH1 0x4 DUP4 ADD SLOAD PUSH1 0x2 DUP5 ADD SLOAD PUSH1 0x40 MLOAD PUSH19 0x1000000000000000000000000000000000000 SWAP1 SWAP2 DIV PUSH14 0xFFFFFFFFFFFFFFFFFFFFFFFFFFFF AND DUP2 MSTORE PUSH20 0xFFFFFFFFFFFFFFFFFFFFFFFFFFFFFFFFFFFFFFFF SWAP2 DUP3 AND SWAP2 DUP4 AND SWAP1 DUP7 SWAP1 PUSH32 0x3E25C3675D003AF5184B628DD8BD4775B9B3ABC7351C3574C90870CA25B55F11 SWAP1 PUSH1 0x20 ADD PUSH1 0x40 MLOAD DUP1 SWAP2 SUB SWAP1 LOG4 POP POP POP POP JUMP JUMPDEST PUSH1 0x0 DUP2 DUP2 MSTORE PUSH1 0x1 PUSH1 0x20 DUP2 DUP2 MSTORE PUSH1 0x40 DUP1 DUP5 KECCAK256 DUP2 MLOAD PUSH2 0x120 DUP2 ADD DUP4 MSTORE DUP2 SLOAD PUSH20 0xFFFFFFFFFFFFFFFFFFFFFFFFFFFFFFFFFFFFFFFF SWAP1 DUP2 AND DUP3 MSTORE SWAP5 DUP3 ADD SLOAD SWAP4 DUP2 ADD SWAP4 SWAP1 SWAP4 MSTORE PUSH1 0x2 DUP2 ADD SLOAD PUSH10 0xFFFFFFFFFFFFFFFFFFFF DUP2 AND SWAP3 DUP5 ADD SWAP3 SWAP1 SWAP3 MSTORE PUSH11 0x100000000000000000000 DUP3 DIV PUSH2 0xFFFF AND PUSH1 0x60 DUP5 ADD MSTORE PUSH13 0x1000000000000000000000000 DUP3 DIV PUSH5 0xFFFFFFFFFF AND PUSH1 0x80 DUP5 ADD MSTORE PUSH18 0x10000000000000000000000000000000000 DUP3 DIV PUSH1 0xFF AND ISZERO ISZERO PUSH1 0xA0 DUP5 ADD MSTORE PUSH19 0x1000000000000000000000000000000000000 SWAP1 SWAP2 DIV PUSH14 0xFFFFFFFFFFFFFFFFFFFFFFFFFFFF AND PUSH1 0xC0 DUP4 ADD MSTORE PUSH1 0x3 DUP2 ADD SLOAD DUP4 AND PUSH1 0xE0 DUP4 ADD MSTORE PUSH1 0x4 ADD SLOAD SWAP1 SWAP2 AND PUSH2 0x100 DUP3 ADD MSTORE PUSH2 0x575 SWAP1 PUSH2 0x1386 JUMP JUMPDEST PUSH1 0x0 PUSH10 0xFFFFFFFFFFFFFFFFFFFF DUP4 LT PUSH2 0x115D JUMPI PUSH1 0x40 MLOAD PUSH32 0x748E67B200000000000000000000000000000000000000000000000000000000 DUP2 MSTORE PUSH1 0x4 ADD PUSH1 0x40 MLOAD DUP1 SWAP2 SUB SWAP1 REVERT JUMPDEST CALLER PUSH2 0x1171 DUP2 DUP7 PUSH2 0x483 DUP8 PUSH2 0x592 DUP9 DUP13 PUSH2 0x119D JUMP JUMPDEST POP PUSH32 0xF23A6E6100000000000000000000000000000000000000000000000000000000 SWAP7 SWAP6 POP POP POP POP POP POP JUMP JUMPDEST PUSH1 0x0 DUP3 MLOAD PUSH1 0x20 SUB PUSH2 0x11E5 JUMPI PUSH1 0x0 DUP4 DUP1 PUSH1 0x20 ADD SWAP1 MLOAD DUP2 ADD SWAP1 PUSH2 0x11BE SWAP2 SWAP1 PUSH2 0x1978 JUMP JUMPDEST SWAP1 POP PUSH20 0xFFFFFFFFFFFFFFFFFFFFFFFFFFFFFFFFFFFFFFFF DUP2 AND ISZERO PUSH2 0x11E3 JUMPI SWAP1 POP PUSH2 0x575 JUMP JUMPDEST POP JUMPDEST POP SWAP2 SWAP1 POP JUMP JUMPDEST PUSH1 0x0 DUP1 SLOAD SWAP1 DUP1 PUSH2 0x11FA DUP4 PUSH2 0x1995 JUMP JUMPDEST SWAP1 SWAP2 SSTORE POP PUSH1 0x0 SWAP1 POP PUSH2 0x1233 PUSH5 0xFFFFFFFFFF PUSH32 0x0 AND TIMESTAMP PUSH2 0x1965 JUMP JUMPDEST PUSH1 0x0 DUP1 SLOAD DUP2 MSTORE PUSH1 0x1 PUSH1 0x20 DUP2 DUP2 MSTORE PUSH1 0x40 DUP1 DUP5 KECCAK256 DUP1 SLOAD PUSH32 0xFFFFFFFFFFFFFFFFFFFFFFFF0000000000000000000000000000000000000000 SWAP1 DUP2 AND PUSH20 0xFFFFFFFFFFFFFFFFFFFFFFFFFFFFFFFFFFFFFFFF DUP15 DUP2 AND SWAP2 DUP3 OR DUP5 SSTORE SWAP6 DUP4 ADD DUP14 SWAP1 SSTORE PUSH1 0x2 DUP4 ADD DUP1 SLOAD PUSH10 0xFFFFFFFFFFFFFFFFFFFF DUP14 AND PUSH32 0xFFFFFFFFFFFFFFFFFFFFFFFFFFFFFFFFFFFFFFFF000000000000000000000000 SWAP1 SWAP2 AND OR PUSH11 0x100000000000000000000 PUSH2 0xFFFF DUP16 AND SWAP1 DUP2 MUL SWAP2 SWAP1 SWAP2 OR PUSH32 0xFFFFFFFFFFFFFFFFFFFFFFFFFFFFFF0000000000FFFFFFFFFFFFFFFFFFFFFFFF AND PUSH13 0x1000000000000000000000000 PUSH5 0xFFFFFFFFFF DUP13 AND SWAP1 DUP2 MUL SWAP2 SWAP1 SWAP2 OR SWAP1 SWAP3 SSTORE PUSH1 0x4 DUP6 ADD DUP1 SLOAD SWAP1 SWAP5 AND SWAP8 DUP13 AND SWAP8 DUP9 OR SWAP1 SWAP4 SSTORE SWAP7 SLOAD DUP5 MLOAD SWAP3 DUP4 MSTORE SWAP5 DUP3 ADD SWAP7 SWAP1 SWAP7 MSTORE SWAP2 DUP3 ADD SWAP4 SWAP1 SWAP4 MSTORE SWAP4 SWAP5 POP SWAP1 SWAP3 DUP9 SWAP3 SWAP2 SWAP1 PUSH32 0xCB1B0405C5D24F2840CD78FAC5DEECD67B4778EE67C494933CD568CBADBD81DA SWAP1 PUSH1 0x60 ADD PUSH1 0x40 MLOAD DUP1 SWAP2 SUB SWAP1 LOG4 POP POP POP POP POP POP POP JUMP JUMPDEST PUSH1 0x0 PUSH2 0x13A5 DUP3 PUSH1 0xC0 ADD MLOAD PUSH14 0xFFFFFFFFFFFFFFFFFFFFFFFFFFFF AND ISZERO ISZERO SWAP1 JUMP JUMPDEST PUSH2 0x13B1 JUMPI PUSH2 0x575 PUSH2 0x1570 JUMP JUMPDEST PUSH1 0xC0 DUP3 ADD MLOAD PUSH14 0xFFFFFFFFFFFFFFFFFFFFFFFFFFFF AND PUSH1 0x0 PUSH1 0x64 PUSH2 0x13F4 PUSH32 0x0 DUP5 PUSH2 0x19CD JUMP JUMPDEST PUSH2 0x13FE SWAP2 SWAP1 PUSH2 0x19E4 JUMP JUMPDEST SWAP1 POP PUSH1 0x0 PUSH32 0x0 DUP3 LT PUSH2 0x144F JUMPI PUSH32 0x0 PUSH2 0x1451 JUMP JUMPDEST DUP2 JUMPDEST SWAP1 POP PUSH2 0x145D DUP2 DUP5 PUSH2 0x1965 JUMP JUMPDEST SWAP6 SWAP5 POP POP POP POP POP JUMP JUMPDEST PUSH1 0x2 DUP2 ADD SLOAD PUSH1 0x0 SWAP1 PUSH2 0x14B0 SWAP1 PUSH32 0x0 SWAP1 PUSH13 0x1000000000000000000000000 SWAP1 DIV PUSH5 0xFFFFFFFFFF AND PUSH2 0x1A1F JUMP JUMPDEST SWAP1 POP TIMESTAMP PUSH5 0xFFFFFFFFFF DUP1 DUP4 AND SWAP1 DUP3 AND GT ISZERO PUSH2 0x156A JUMPI PUSH2 0x14EF PUSH32 0x0 DUP3 PUSH2 0x1A44 JUMP JUMPDEST PUSH1 0x2 DUP5 ADD DUP1 SLOAD PUSH32 0xFFFFFFFFFFFFFFFFFFFFFFFFFFFFFF0000000000FFFFFFFFFFFFFFFFFFFFFFFF AND PUSH13 0x1000000000000000000000000 PUSH5 0xFFFFFFFFFF SWAP4 DUP5 AND DUP2 MUL SWAP2 SWAP1 SWAP2 OR SWAP2 DUP3 SWAP1 SSTORE PUSH1 0x40 MLOAD SWAP2 DIV SWAP1 SWAP2 AND SWAP1 DUP6 SWAP1 PUSH32 0x6E912A3A9105BDD2AF817BA5ADC14E6C127C1035B5B648FAA29CA0D58AB8FF4E SWAP1 PUSH1 0x0 SWAP1 LOG3 JUMPDEST POP POP POP POP JUMP JUMPDEST PUSH1 0x0 PUSH2 0x157E BASEFEE PUSH2 0xEA60 PUSH2 0x19CD JUMP JUMPDEST SWAP1 POP SWAP1 JUMP JUMPDEST PUSH1 0x0 PUSH1 0x20 DUP3 DUP5 SUB SLT ISZERO PUSH2 0x1595 JUMPI PUSH1 0x0 DUP1 REVERT JUMPDEST DUP2 CALLDATALOAD PUSH32 0xFFFFFFFF00000000000000000000000000000000000000000000000000000000 DUP2 AND DUP2 EQ PUSH2 0x15C5 JUMPI PUSH1 0x0 DUP1 REVERT JUMPDEST SWAP4 SWAP3 POP POP POP JUMP JUMPDEST PUSH20 0xFFFFFFFFFFFFFFFFFFFFFFFFFFFFFFFFFFFFFFFF DUP2 AND DUP2 EQ PUSH2 0x15EE JUMPI PUSH1 0x0 DUP1 REVERT JUMPDEST POP JUMP JUMPDEST PUSH32 0x4E487B7100000000000000000000000000000000000000000000000000000000 PUSH1 0x0 MSTORE PUSH1 0x41 PUSH1 0x4 MSTORE PUSH1 0x24 PUSH1 0x0 REVERT JUMPDEST PUSH1 0x40 MLOAD PUSH1 0x1F DUP3 ADD PUSH32 0xFFFFFFFFFFFFFFFFFFFFFFFFFFFFFFFFFFFFFFFFFFFFFFFFFFFFFFFFFFFFFFE0 AND DUP2 ADD PUSH8 0xFFFFFFFFFFFFFFFF DUP2 GT DUP3 DUP3 LT OR ISZERO PUSH2 0x1667 JUMPI PUSH2 0x1667 PUSH2 0x15F1 JUMP JUMPDEST PUSH1 0x40 MSTORE SWAP2 SWAP1 POP JUMP JUMPDEST PUSH1 0x0 DUP3 PUSH1 0x1F DUP4 ADD SLT PUSH2 0x1680 JUMPI PUSH1 0x0 DUP1 REVERT JUMPDEST DUP2 CALLDATALOAD PUSH8 0xFFFFFFFFFFFFFFFF DUP2 GT ISZERO PUSH2 0x169A JUMPI PUSH2 0x169A PUSH2 0x15F1 JUMP JUMPDEST PUSH2 0x16CB PUSH1 0x20 PUSH32 0xFFFFFFFFFFFFFFFFFFFFFFFFFFFFFFFFFFFFFFFFFFFFFFFFFFFFFFFFFFFFFFE0 PUSH1 0x1F DUP5 ADD AND ADD PUSH2 0x1620 JUMP JUMPDEST DUP2 DUP2 MSTORE DUP5 PUSH1 0x20 DUP4 DUP7 ADD ADD GT ISZERO PUSH2 0x16E0 JUMPI PUSH1 0x0 DUP1 REVERT JUMPDEST DUP2 PUSH1 0x20 DUP6 ADD PUSH1 0x20 DUP4 ADD CALLDATACOPY PUSH1 0x0 SWAP2 DUP2 ADD PUSH1 0x20 ADD SWAP2 SWAP1 SWAP2 MSTORE SWAP4 SWAP3 POP POP POP JUMP JUMPDEST PUSH1 0x0 DUP1 PUSH1 0x0 DUP1 PUSH1 0x80 DUP6 DUP8 SUB SLT ISZERO PUSH2 0x1713 JUMPI PUSH1 0x0 DUP1 REVERT JUMPDEST DUP5 CALLDATALOAD PUSH2 0x171E DUP2 PUSH2 0x15CC JUMP JUMPDEST SWAP4 POP PUSH1 0x20 DUP6 ADD CALLDATALOAD PUSH2 0x172E DUP2 PUSH2 0x15CC JUMP JUMPDEST SWAP3 POP PUSH1 0x40 DUP6 ADD CALLDATALOAD SWAP2 POP PUSH1 0x60 DUP6 ADD CALLDATALOAD PUSH8 0xFFFFFFFFFFFFFFFF DUP2 GT ISZERO PUSH2 0x1751 JUMPI PUSH1 0x0 DUP1 REVERT JUMPDEST PUSH2 0x175D DUP8 DUP3 DUP9 ADD PUSH2 0x166F JUMP JUMPDEST SWAP2 POP POP SWAP3 SWAP6 SWAP2 SWAP5 POP SWAP3 POP JUMP JUMPDEST PUSH1 0x0 PUSH1 0x20 DUP3 DUP5 SUB SLT ISZERO PUSH2 0x177B JUMPI PUSH1 0x0 DUP1 REVERT JUMPDEST DUP2 CALLDATALOAD PUSH2 0x15C5 DUP2 PUSH2 0x15CC JUMP JUMPDEST PUSH1 0x0 PUSH1 0x20 DUP3 DUP5 SUB SLT ISZERO PUSH2 0x1798 JUMPI PUSH1 0x0 DUP1 REVERT JUMPDEST POP CALLDATALOAD SWAP2 SWAP1 POP JUMP JUMPDEST PUSH1 0x0 DUP3 PUSH1 0x1F DUP4 ADD SLT PUSH2 0x17B0 JUMPI PUSH1 0x0 DUP1 REVERT JUMPDEST DUP2 CALLDATALOAD PUSH1 0x20 PUSH8 0xFFFFFFFFFFFFFFFF DUP3 GT ISZERO PUSH2 0x17CC JUMPI PUSH2 0x17CC PUSH2 0x15F1 JUMP JUMPDEST DUP2 PUSH1 0x5 SHL PUSH2 0x17DB DUP3 DUP3 ADD PUSH2 0x1620 JUMP JUMPDEST SWAP3 DUP4 MSTORE DUP5 DUP2 ADD DUP3 ADD SWAP3 DUP3 DUP2 ADD SWAP1 DUP8 DUP6 GT ISZERO PUSH2 0x17F5 JUMPI PUSH1 0x0 DUP1 REVERT JUMPDEST DUP4 DUP8 ADD SWAP3 POP JUMPDEST DUP5 DUP4 LT ISZERO PUSH2 0x1814 JUMPI DUP3 CALLDATALOAD DUP3 MSTORE SWAP2 DUP4 ADD SWAP2 SWAP1 DUP4 ADD SWAP1 PUSH2 0x17FB JUMP JUMPDEST SWAP8 SWAP7 POP POP POP POP POP POP POP JUMP JUMPDEST PUSH1 0x0 DUP1 PUSH1 0x0 DUP1 PUSH1 0x0 PUSH1 0xA0 DUP7 DUP9 SUB SLT ISZERO PUSH2 0x1837 JUMPI PUSH1 0x0 DUP1 REVERT JUMPDEST DUP6 CALLDATALOAD PUSH2 0x1842 DUP2 PUSH2 0x15CC JUMP JUMPDEST SWAP5 POP PUSH1 0x20 DUP7 ADD CALLDATALOAD PUSH2 0x1852 DUP2 PUSH2 0x15CC JUMP JUMPDEST SWAP4 POP PUSH1 0x40 DUP7 ADD CALLDATALOAD PUSH8 0xFFFFFFFFFFFFFFFF DUP1 DUP3 GT ISZERO PUSH2 0x186F JUMPI PUSH1 0x0 DUP1 REVERT JUMPDEST PUSH2 0x187B DUP10 DUP4 DUP11 ADD PUSH2 0x179F JUMP JUMPDEST SWAP5 POP PUSH1 0x60 DUP9 ADD CALLDATALOAD SWAP2 POP DUP1 DUP3 GT ISZERO PUSH2 0x1891 JUMPI PUSH1 0x0 DUP1 REVERT JUMPDEST PUSH2 0x189D DUP10 DUP4 DUP11 ADD PUSH2 0x179F JUMP JUMPDEST SWAP4 POP PUSH1 0x80 DUP9 ADD CALLDATALOAD SWAP2 POP DUP1 DUP3 GT ISZERO PUSH2 0x18B3 JUMPI PUSH1 0x0 DUP1 REVERT JUMPDEST POP PUSH2 0x18C0 DUP9 DUP3 DUP10 ADD PUSH2 0x166F JUMP JUMPDEST SWAP2 POP POP SWAP3 SWAP6 POP SWAP3 SWAP6 SWAP1 SWAP4 POP JUMP JUMPDEST PUSH1 0x0 DUP1 PUSH1 0x0 DUP1 PUSH1 0x0 PUSH1 0xA0 DUP7 DUP9 SUB SLT ISZERO PUSH2 0x18E5 JUMPI PUSH1 0x0 DUP1 REVERT JUMPDEST DUP6 CALLDATALOAD PUSH2 0x18F0 DUP2 PUSH2 0x15CC JUMP JUMPDEST SWAP5 POP PUSH1 0x20 DUP7 ADD CALLDATALOAD PUSH2 0x1900 DUP2 PUSH2 0x15CC JUMP JUMPDEST SWAP4 POP PUSH1 0x40 DUP7 ADD CALLDATALOAD SWAP3 POP PUSH1 0x60 DUP7 ADD CALLDATALOAD SWAP2 POP PUSH1 0x80 DUP7 ADD CALLDATALOAD PUSH8 0xFFFFFFFFFFFFFFFF DUP2 GT ISZERO PUSH2 0x192A JUMPI PUSH1 0x0 DUP1 REVERT JUMPDEST PUSH2 0x18C0 DUP9 DUP3 DUP10 ADD PUSH2 0x166F JUMP JUMPDEST PUSH32 0x4E487B7100000000000000000000000000000000000000000000000000000000 PUSH1 0x0 MSTORE PUSH1 0x11 PUSH1 0x4 MSTORE PUSH1 0x24 PUSH1 0x0 REVERT JUMPDEST DUP1 DUP3 ADD DUP1 DUP3 GT ISZERO PUSH2 0x575 JUMPI PUSH2 0x575 PUSH2 0x1936 JUMP JUMPDEST PUSH1 0x0 PUSH1 0x20 DUP3 DUP5 SUB SLT ISZERO PUSH2 0x198A JUMPI PUSH1 0x0 DUP1 REVERT JUMPDEST DUP2 MLOAD PUSH2 0x15C5 DUP2 PUSH2 0x15CC JUMP JUMPDEST PUSH1 0x0 PUSH32 0xFFFFFFFFFFFFFFFFFFFFFFFFFFFFFFFFFFFFFFFFFFFFFFFFFFFFFFFFFFFFFFFF DUP3 SUB PUSH2 0x19C6 JUMPI PUSH2 0x19C6 PUSH2 0x1936 JUMP JUMPDEST POP PUSH1 0x1 ADD SWAP1 JUMP JUMPDEST DUP1 DUP3 MUL DUP2 ISZERO DUP3 DUP3 DIV DUP5 EQ OR PUSH2 0x575 JUMPI PUSH2 0x575 PUSH2 0x1936 JUMP JUMPDEST PUSH1 0x0 DUP3 PUSH2 0x1A1A JUMPI PUSH32 0x4E487B7100000000000000000000000000000000000000000000000000000000 PUSH1 0x0 MSTORE PUSH1 0x12 PUSH1 0x4 MSTORE PUSH1 0x24 PUSH1 0x0 REVERT JUMPDEST POP DIV SWAP1 JUMP JUMPDEST PUSH5 0xFFFFFFFFFF DUP3 DUP2 AND DUP3 DUP3 AND SUB SWAP1 DUP1 DUP3 GT ISZERO PUSH2 0x1A3D JUMPI PUSH2 0x1A3D PUSH2 0x1936 JUMP JUMPDEST POP SWAP3 SWAP2 POP POP JUMP JUMPDEST PUSH5 0xFFFFFFFFFF DUP2 DUP2 AND DUP4 DUP3 AND ADD SWAP1 DUP1 DUP3 GT ISZERO PUSH2 0x1A3D JUMPI PUSH2 0x1A3D PUSH2 0x1936 JUMP INVALID LOG2 PUSH5 0x6970667358 0x22 SLT KECCAK256 LOG1 0xDA SWAP1 0xCB CALLDATALOAD 0xE8 NUMBER MSIZE PUSH1 0x96 MUL 0xE4 0xB5 0xD SWAP5 PUSH12 0xA97D3A7D6B183D5ED2E4FF92 DUP12 DUP14 JUMPI MLOAD PUSH5 0x736F6C6343 STOP ADDMOD XOR STOP CALLER "
        },
        "methodIdentifiers": {
          "AUCTION_DURATION()": "a271e525",
          "BIDDING_GRACE_PERIOD()": "e75429e1",
          "BID_PERCENTAGE_INCREASE()": "74c02598",
          "MAX_BID_INCREASE()": "b5a13e4c",
          "auctionId()": "10782f8f",
          "auctions(uint256)": "571a26a0",
          "balances(address)": "27e235e3",
          "bid(uint256)": "454a2ab3",
          "currentBidPrice(uint256)": "cb0fc56d",
          "onERC1155BatchReceived(address,address,uint256[],uint256[],bytes)": "bc197c81",
          "onERC1155Received(address,address,uint256,uint256,bytes)": "f23a6e61",
          "onERC721Received(address,address,uint256,bytes)": "150b7a02",
          "settle(uint256)": "8df82800",
          "supportsInterface(bytes4)": "01ffc9a7",
          "withdraw()": "3ccfd60b"
        }
      }
    }
  }
}